{
  "contractName": "ETZallocation",
  "abi": [
    {
      "constant": false,
      "inputs": [],
      "name": "RDTallocation",
      "outputs": [],
      "payable": false,
      "stateMutability": "nonpayable",
      "type": "function"
    },
    {
      "constant": true,
      "inputs": [],
      "name": "owner",
      "outputs": [
        {
          "name": "",
          "type": "address"
        }
      ],
      "payable": false,
      "stateMutability": "view",
      "type": "function"
    },
    {
      "constant": true,
      "inputs": [],
      "name": "allocated",
      "outputs": [
        {
          "name": "",
          "type": "bool"
        }
      ],
      "payable": false,
      "stateMutability": "view",
      "type": "function"
    },
    {
      "constant": false,
      "inputs": [
        {
          "name": "contractICO",
          "type": "address"
        }
      ],
      "name": "startICO",
      "outputs": [],
      "payable": false,
      "stateMutability": "nonpayable",
      "type": "function"
    },
    {
      "constant": false,
      "inputs": [
        {
          "name": "newOwner",
          "type": "address"
        }
      ],
      "name": "transferOwnership",
      "outputs": [],
      "payable": false,
      "stateMutability": "nonpayable",
      "type": "function"
    },
    {
      "constant": true,
      "inputs": [],
      "name": "token",
      "outputs": [
        {
          "name": "",
          "type": "address"
        }
      ],
      "payable": false,
      "stateMutability": "view",
      "type": "function"
    },
    {
      "inputs": [
        {
          "name": "_token",
          "type": "address"
        }
      ],
      "payable": false,
      "stateMutability": "nonpayable",
      "type": "constructor"
    },
    {
      "anonymous": false,
      "inputs": [
        {
          "indexed": true,
          "name": "previousOwner",
          "type": "address"
        },
        {
          "indexed": true,
          "name": "newOwner",
          "type": "address"
        }
      ],
      "name": "OwnershipTransferred",
      "type": "event"
    }
  ],
  "bytecode": "0x60606040526001805460a060020a60ff0219169055341561001f57600080fd5b6040516020806107548339810160405280805160008054600160a060020a03191633600160a060020a039081169190911790915590925082161515905061006557600080fd5b60018054600160a060020a031916600160a060020a03929092169190911790556106c0806100946000396000f30060606040526004361061005e5763ffffffff60e060020a6000350416638a4f5d2781146100635780638da5cb5b14610078578063b304b2e1146100a7578063c7a9d6de146100ce578063f2fde38b146100ed578063fc0c546a1461010c575b600080fd5b341561006e57600080fd5b61007661011f565b005b341561008357600080fd5b61008b61051c565b604051600160a060020a03909116815260200160405180910390f35b34156100b257600080fd5b6100ba61052b565b604051901515815260200160405180910390f35b34156100d957600080fd5b610076600160a060020a036004351661053b565b34156100f857600080fd5b610076600160a060020a03600435166105ea565b341561011757600080fd5b61008b610685565b60005433600160a060020a0390811691161461013a57600080fd5b60015460a060020a900460ff161561015157600080fd5b600154600160a060020a0316151561016857600080fd5b600154600160a060020a03166340c10f19736b6dc58d937e8db3814ba067c29689dd3cee2126689bf66ea2111509000060006040516020015260405160e060020a63ffffffff8516028152600160a060020a0390921660048301526024820152604401602060405180830381600087803b15156101e457600080fd5b6102c65a03f115156101f557600080fd5b50505060405180515050600154600160a060020a03166340c10f1973570e2260bad08e8cf094583f5c5424d3c82d429d69079d8866e9d586f0800060006040516020015260405160e060020a63ffffffff8516028152600160a060020a0390921660048301526024820152604401602060405180830381600087803b151561027c57600080fd5b6102c65a03f1151561028d57600080fd5b50505060405180515050600154600160a060020a03166340c10f1973570e2260bad08e8cf094583f5c5424d3c82d429d6a01a7bb1d18a28dc912000060006040516020015260405160e060020a63ffffffff8516028152600160a060020a0390921660048301526024820152604401602060405180830381600087803b151561031557600080fd5b6102c65a03f1151561032657600080fd5b50505060405180515050600154600160a060020a03166340c10f19738f43ee13b1bc1a42e86baf3e9b1e084dd284a5136812391835207b60200060006040516020015260405160e060020a63ffffffff8516028152600160a060020a0390921660048301526024820152604401602060405180830381600087803b15156103ac57600080fd5b6102c65a03f115156103bd57600080fd5b50505060405180515050600154600160a060020a03166340c10f19738f43ee13b1bc1a42e86baf3e9b1e084dd284a51368128a355b6ca7b6800060006040516020015260405160e060020a63ffffffff8516028152600160a060020a0390921660048301526024820152604401602060405180830381600087803b151561044357600080fd5b6102c65a03f1151561045457600080fd5b50505060405180515050600154600160a060020a03166340c10f1973b8a1895fbc198d165981d087ef7b41a1f6520115695f4817047ee318be400060006040516020015260405160e060020a63ffffffff8516028152600160a060020a0390921660048301526024820152604401602060405180830381600087803b15156104db57600080fd5b6102c65a03f115156104ec57600080fd5b505050604051805150506001805474ff0000000000000000000000000000000000000000191660a060020a179055565b600054600160a060020a031681565b60015460a060020a900460ff1681565b60005433600160a060020a0390811691161461055657600080fd5b600160a060020a038116151561056b57600080fd5b60015460a060020a900460ff16151561058357600080fd5b600154600160a060020a031663f2fde38b8260405160e060020a63ffffffff8416028152600160a060020a039091166004820152602401600060405180830381600087803b15156105d357600080fd5b6102c65a03f115156105e457600080fd5b50505050565b60005433600160a060020a0390811691161461060557600080fd5b600160a060020a038116151561061a57600080fd5b600054600160a060020a0380831691167f8be0079c531659141344cd1fd0a4f28419497f9722a3daafe3b4186f6b6457e060405160405180910390a36000805473ffffffffffffffffffffffffffffffffffffffff1916600160a060020a0392909216919091179055565b600154600160a060020a0316815600a165627a7a7230582083a1a6b3929c9179ea8692037b5c27d33a379482be951135396b0846ed3be5880029",
  "source": "pragma solidity ^0.4.11;\n\nimport \"./RDT.sol\";\nimport \"zeppelin-solidity/contracts/ownership/Ownable.sol\";\n\ncontract ETZallocation is Ownable{\n  RDT public token;\n  bool public allocated = false;\n  function ETZallocation (RDT _token) public{\n    require(_token!=address(0));\n    token = _token;\n  }\n\n  function RDTallocation() onlyOwner public {\n    require(!allocated);\n    require(token!=address(0));\n    token.mint(0x6b6dc58D937E8DB3814BA067C29689dd3CEE2126,2877002640000000000000);\n    token.mint(0x570E2260BaD08E8cf094583F5C5424d3c82d429d,35962533000000000000000);\n    token.mint(0x570E2260BaD08E8cf094583F5C5424d3c82d429d,2001012660000000000000000);\n    token.mint(0x8f43eE13B1Bc1A42E86BaF3E9b1e084dD284a513,336155490000000000000);\n    token.mint(0x8f43eE13B1Bc1A42E86BaF3E9b1e084dD284a513,342000360000000000000);\n    token.mint(0xB8A1895FBc198D165981d087EF7b41a1F6520115,449954640036000000000000);\n    allocated = true;\n  }\n\n  function startICO(address contractICO) onlyOwner public{\n    require(contractICO!=address(0));\n    require(allocated);\n    token.transferOwnership(contractICO);\n  }\n}\n",
  "sourcePath": "/home/ch/projects/rd_smart_contract/contracts/ETZallocation.sol",
  "compiler": {
    "name": "solc",
    "version": "0.4.18+commit.9cf6e910.Emscripten.clang"
  },
  "schemaVersion": "1.0.1",
  "updatedAt": "2018-01-31T09:39:36.206Z"
}