{
  "contractName": "ICO",
  "abi": [
    {
      "constant": true,
      "inputs": [],
      "name": "rate",
      "outputs": [
        {
          "name": "",
          "type": "uint256"
        }
      ],
      "payable": false,
      "stateMutability": "view",
      "type": "function"
    },
    {
      "constant": true,
      "inputs": [],
      "name": "endTime",
      "outputs": [
        {
          "name": "",
          "type": "uint256"
        }
      ],
      "payable": false,
      "stateMutability": "view",
      "type": "function"
    },
    {
      "constant": true,
      "inputs": [],
      "name": "cap",
      "outputs": [
        {
          "name": "",
          "type": "uint256"
        }
      ],
      "payable": false,
      "stateMutability": "view",
      "type": "function"
    },
    {
      "constant": true,
      "inputs": [],
      "name": "goal",
      "outputs": [
        {
          "name": "",
          "type": "uint256"
        }
      ],
      "payable": false,
      "stateMutability": "view",
      "type": "function"
    },
    {
      "constant": true,
      "inputs": [],
      "name": "weiRaised",
      "outputs": [
        {
          "name": "",
          "type": "uint256"
        }
      ],
      "payable": false,
      "stateMutability": "view",
      "type": "function"
    },
    {
      "constant": false,
      "inputs": [],
      "name": "finalize",
      "outputs": [],
      "payable": false,
      "stateMutability": "nonpayable",
      "type": "function"
    },
    {
      "constant": true,
      "inputs": [],
      "name": "wallet",
      "outputs": [
        {
          "name": "",
          "type": "address"
        }
      ],
      "payable": false,
      "stateMutability": "view",
      "type": "function"
    },
    {
      "constant": true,
      "inputs": [],
      "name": "bonus4End",
      "outputs": [
        {
          "name": "",
          "type": "uint256"
        }
      ],
      "payable": false,
      "stateMutability": "view",
      "type": "function"
    },
    {
      "constant": true,
      "inputs": [],
      "name": "bonus1End",
      "outputs": [
        {
          "name": "",
          "type": "uint256"
        }
      ],
      "payable": false,
      "stateMutability": "view",
      "type": "function"
    },
    {
      "constant": true,
      "inputs": [],
      "name": "startTime",
      "outputs": [
        {
          "name": "",
          "type": "uint256"
        }
      ],
      "payable": false,
      "stateMutability": "view",
      "type": "function"
    },
    {
      "constant": true,
      "inputs": [],
      "name": "goalReached",
      "outputs": [
        {
          "name": "",
          "type": "bool"
        }
      ],
      "payable": false,
      "stateMutability": "view",
      "type": "function"
    },
    {
      "constant": true,
      "inputs": [],
      "name": "bonus2End",
      "outputs": [
        {
          "name": "",
          "type": "uint256"
        }
      ],
      "payable": false,
      "stateMutability": "view",
      "type": "function"
    },
    {
      "constant": true,
      "inputs": [],
      "name": "isFinalized",
      "outputs": [
        {
          "name": "",
          "type": "bool"
        }
      ],
      "payable": false,
      "stateMutability": "view",
      "type": "function"
    },
    {
      "constant": true,
      "inputs": [],
      "name": "owner",
      "outputs": [
        {
          "name": "",
          "type": "address"
        }
      ],
      "payable": false,
      "stateMutability": "view",
      "type": "function"
    },
    {
      "constant": false,
      "inputs": [],
      "name": "claimRefund",
      "outputs": [],
      "payable": false,
      "stateMutability": "nonpayable",
      "type": "function"
    },
    {
      "constant": true,
      "inputs": [],
      "name": "bonus3End",
      "outputs": [
        {
          "name": "",
          "type": "uint256"
        }
      ],
      "payable": false,
      "stateMutability": "view",
      "type": "function"
    },
    {
      "constant": false,
      "inputs": [
        {
          "name": "beneficiary",
          "type": "address"
        }
      ],
      "name": "buyTokens",
      "outputs": [],
      "payable": true,
      "stateMutability": "payable",
      "type": "function"
    },
    {
      "constant": true,
      "inputs": [],
      "name": "hasEnded",
      "outputs": [
        {
          "name": "",
          "type": "bool"
        }
      ],
      "payable": false,
      "stateMutability": "view",
      "type": "function"
    },
    {
      "constant": false,
      "inputs": [
        {
          "name": "newOwner",
          "type": "address"
        }
      ],
      "name": "transferOwnership",
      "outputs": [],
      "payable": false,
      "stateMutability": "nonpayable",
      "type": "function"
    },
    {
      "constant": true,
      "inputs": [],
      "name": "vault",
      "outputs": [
        {
          "name": "",
          "type": "address"
        }
      ],
      "payable": false,
      "stateMutability": "view",
      "type": "function"
    },
    {
      "constant": true,
      "inputs": [],
      "name": "token",
      "outputs": [
        {
          "name": "",
          "type": "address"
        }
      ],
      "payable": false,
      "stateMutability": "view",
      "type": "function"
    },
    {
      "inputs": [
        {
          "name": "_startTime",
          "type": "uint256"
        },
        {
          "name": "_endTime",
          "type": "uint256"
        },
        {
          "name": "_rate",
          "type": "uint256"
        },
        {
          "name": "_goal",
          "type": "uint256"
        },
        {
          "name": "_cap",
          "type": "uint256"
        },
        {
          "name": "_wallet",
          "type": "address"
        },
        {
          "name": "_token",
          "type": "address"
        }
      ],
      "payable": false,
      "stateMutability": "nonpayable",
      "type": "constructor"
    },
    {
      "payable": true,
      "stateMutability": "payable",
      "type": "fallback"
    },
    {
      "anonymous": false,
      "inputs": [],
      "name": "Finalized",
      "type": "event"
    },
    {
      "anonymous": false,
      "inputs": [
        {
          "indexed": true,
          "name": "previousOwner",
          "type": "address"
        },
        {
          "indexed": true,
          "name": "newOwner",
          "type": "address"
        }
      ],
      "name": "OwnershipTransferred",
      "type": "event"
    },
    {
      "anonymous": false,
      "inputs": [
        {
          "indexed": true,
          "name": "purchaser",
          "type": "address"
        },
        {
          "indexed": true,
          "name": "beneficiary",
          "type": "address"
        },
        {
          "indexed": false,
          "name": "value",
          "type": "uint256"
        },
        {
          "indexed": false,
          "name": "amount",
          "type": "uint256"
        }
      ],
      "name": "TokenPurchase",
      "type": "event"
    }
  ],
  "bytecode": "0x60606040526007805460a060020a60ff0219169055635a819de0600a55635abbd820600b5560055469010f0cf064dd5920000003600c55611770600d55680d8d726b7177a80000600e556203f480600f55620d2f0060105562166980601155621fa400601255341561007057600080fd5b60405160e08061123c8339810160405280805191906020018051919060200180519190602001805191906020018051919060200180519190602001805191508490508388888886428410156100c457600080fd5b838310156100d157600080fd5b600082116100de57600080fd5b600160a060020a03811615156100f357600080fd5b6101086401000000006109a161022682021704565b60008054600160a060020a0319908116600160a060020a0393841617825560019690965560029490945560049290925560038054909416911617909155811161015057600080fd5b60065560078054600160a060020a03191633600160a060020a03161790556000811161017b57600080fd5b600354600160a060020a031661018f610235565b600160a060020a039091168152602001604051809103906000f08015156101b557600080fd5b60098054600160a060020a031916600160a060020a0392909216919091179055600855828411156101e557600080fd5b600160a060020a03811615156101fa57600080fd5b60008054600160a060020a031916600160a060020a039290921691909117905550610245945050505050565b600054600160a060020a031690565b60405161060c80610c3083390190565b6109dc806102546000396000f3006060604052600436106101035763ffffffff60e060020a6000350416632c4e722e811461010e5780633197cbb614610133578063355274ea1461014657806340193883146101595780634042b66f1461016c5780634bb278f31461017f578063521eb27314610192578063547ecdfe146101c15780635ae0a426146101d457806378e97925146101e75780637d3d6522146101fa578063863e3071146102215780638d4e4083146102345780638da5cb5b14610247578063b5545a3c1461025a578063d45ce71f1461026d578063ec8ac4d814610280578063ecb70fb714610294578063f2fde38b146102a7578063fbfa77cf146102c6578063fc0c546a146102d9575b61010c336102ec565b005b341561011957600080fd5b610121610415565b60405190815260200160405180910390f35b341561013e57600080fd5b61012161041b565b341561015157600080fd5b610121610421565b341561016457600080fd5b610121610427565b341561017757600080fd5b61012161042d565b341561018a57600080fd5b61010c610433565b341561019d57600080fd5b6101a56104d2565b604051600160a060020a03909116815260200160405180910390f35b34156101cc57600080fd5b6101216104e1565b34156101df57600080fd5b6101216104e7565b34156101f257600080fd5b6101216104ed565b341561020557600080fd5b61020d6104f3565b604051901515815260200160405180910390f35b341561022c57600080fd5b6101216104fe565b341561023f57600080fd5b61020d610504565b341561025257600080fd5b6101a5610514565b341561026557600080fd5b61010c610523565b341561027857600080fd5b6101216105ae565b61010c600160a060020a03600435166102ec565b341561029f57600080fd5b61020d6105b4565b34156102b257600080fd5b61010c600160a060020a03600435166105d6565b34156102d157600080fd5b6101a5610671565b34156102e457600080fd5b6101a5610680565b600080600160a060020a038316151561030457600080fd5b61030c61068f565b151561031757600080fd5b349150610323826106c2565b600554909150610339908363ffffffff6107e716565b60055560008054600160a060020a0316906340c10f1990859084906040516020015260405160e060020a63ffffffff8516028152600160a060020a0390921660048301526024820152604401602060405180830381600087803b151561039e57600080fd5b6102c65a03f115156103af57600080fd5b505050604051805190505082600160a060020a031633600160a060020a03167f623b3804fa71d67900d064613da8f94b9617215ee90799290593e1745087ad18848460405191825260208201526040908101905180910390a3610410610801565b505050565b60045481565b60025481565b60065481565b60085481565b60055481565b60075433600160a060020a0390811691161461044e57600080fd5b60075460a060020a900460ff161561046557600080fd5b61046d6105b4565b151561047857600080fd5b610480610868565b7f6823b073d48d6e3a7d385eeb601452d680e74bb46afe3255a7d778f3a9b1768160405160405180910390a16007805474ff0000000000000000000000000000000000000000191660a060020a179055565b600354600160a060020a031681565b60125481565b600f5481565b60015481565b600854600554101590565b60105481565b60075460a060020a900460ff1681565b600754600160a060020a031681565b60075460a060020a900460ff16151561053b57600080fd5b6105436104f3565b1561054d57600080fd5b600954600160a060020a031663fa89401a3360405160e060020a63ffffffff8416028152600160a060020a039091166004820152602401600060405180830381600087803b151561059d57600080fd5b6102c65a03f1151561041057600080fd5b60115481565b6006546005546000919010156105c8610927565b806105d05750805b91505090565b60075433600160a060020a039081169116146105f157600080fd5b600160a060020a038116151561060657600080fd5b600754600160a060020a0380831691167f8be0079c531659141344cd1fd0a4f28419497f9722a3daafe3b4186f6b6457e060405160405180910390a36007805473ffffffffffffffffffffffffffffffffffffffff1916600160a060020a0392909216919091179055565b600954600160a060020a031681565b600054600160a060020a031681565b6000806006546106aa346005546107e790919063ffffffff16565b111590506106b661092f565b80156105d05750919050565b600f5460015460009182918291014211610700576106fd60646106f1601460045461095f90919063ffffffff16565b9063ffffffff61098a16565b91505b600f54600154014211801561071b5750601054600154014211155b1561073e5761073b60646106f1600f60045461095f90919063ffffffff16565b91505b60105460015401421180156107595750601154600154014211155b1561077c5761077960646106f1600a60045461095f90919063ffffffff16565b91505b60115460015401421180156107975750601254600154014211155b156107ba576107b760646106f1600560045461095f90919063ffffffff16565b91505b6004546107cd908363ffffffff6107e716565b90506107df848263ffffffff61095f16565b949350505050565b6000828201838110156107f657fe5b8091505b5092915050565b600954600160a060020a031663f340fa01343360405160e060020a63ffffffff8516028152600160a060020a0390911660048201526024016000604051808303818588803b151561085157600080fd5b6125ee5a03f1151561086257600080fd5b50505050565b6108706104f3565b156108cd57600954600160a060020a03166343d726d66040518163ffffffff1660e060020a028152600401600060405180830381600087803b15156108b457600080fd5b6102c65a03f115156108c557600080fd5b505050610921565b600954600160a060020a0316638c52dc416040518163ffffffff1660e060020a028152600401600060405180830381600087803b151561090c57600080fd5b6102c65a03f1151561091d57600080fd5b5050505b6109255b565b600254421190565b6000806000600154421015801561094857506002544211155b9150503415158180156109585750805b9250505090565b60008083151561097257600091506107fa565b5082820282848281151561098257fe5b04146107f657fe5b600080828481151561099857fe5b04949350505050565b600054600160a060020a0316905600a165627a7a7230582051a0a2e3be33ccaeac753292a5e02b13fdda8ec5be3ec944a96a6ae07e7102fd00296060604052341561000f57600080fd5b60405160208061060c8339810160405280805160008054600160a060020a03191633600160a060020a039081169190911790915590925082161515905061005557600080fd5b60028054600160a060020a031916600160a060020a03929092169190911760a060020a60ff021916905561057e8061008e6000396000f3006060604052600436106100985763ffffffff7c010000000000000000000000000000000000000000000000000000000060003504166343d726d6811461009d578063521eb273146100b25780638c52dc41146100e15780638da5cb5b146100f4578063c19d93fb14610107578063cb13cddb1461013e578063f2fde38b1461016f578063f340fa011461018e578063fa89401a146101a2575b600080fd5b34156100a857600080fd5b6100b06101c1565b005b34156100bd57600080fd5b6100c561029c565b604051600160a060020a03909116815260200160405180910390f35b34156100ec57600080fd5b6100b06102ab565b34156100ff57600080fd5b6100c561033c565b341561011257600080fd5b61011a61034b565b6040518082600281111561012a57fe5b60ff16815260200191505060405180910390f35b341561014957600080fd5b61015d600160a060020a036004351661035b565b60405190815260200160405180910390f35b341561017a57600080fd5b6100b0600160a060020a036004351661036d565b6100b0600160a060020a0360043516610408565b34156101ad57600080fd5b6100b0600160a060020a036004351661048c565b60005433600160a060020a039081169116146101dc57600080fd5b60006002805460a060020a900460ff16908111156101f657fe5b1461020057600080fd5b6002805474ff00000000000000000000000000000000000000001916740200000000000000000000000000000000000000001790557f1cdde67b72a90f19919ac732a437ac2f7a10fc128d28c2a6e525d89ce5cd9d3a60405160405180910390a1600254600160a060020a039081169030163180156108fc0290604051600060405180830381858888f19350505050151561029a57600080fd5b565b600254600160a060020a031681565b60005433600160a060020a039081169116146102c657600080fd5b60006002805460a060020a900460ff16908111156102e057fe5b146102ea57600080fd5b6002805474ff0000000000000000000000000000000000000000191660a060020a1790557f599d8e5a83cffb867d051598c4d70e805d59802d8081c1c7d6dffc5b6aca2b8960405160405180910390a1565b600054600160a060020a031681565b60025460a060020a900460ff1681565b60016020526000908152604090205481565b60005433600160a060020a0390811691161461038857600080fd5b600160a060020a038116151561039d57600080fd5b600054600160a060020a0380831691167f8be0079c531659141344cd1fd0a4f28419497f9722a3daafe3b4186f6b6457e060405160405180910390a36000805473ffffffffffffffffffffffffffffffffffffffff1916600160a060020a0392909216919091179055565b60005433600160a060020a0390811691161461042357600080fd5b60006002805460a060020a900460ff169081111561043d57fe5b1461044757600080fd5b600160a060020a038116600090815260016020526040902054610470903463ffffffff61053c16565b600160a060020a03909116600090815260016020526040902055565b600060016002805460a060020a900460ff16908111156104a857fe5b146104b257600080fd5b50600160a060020a038116600081815260016020526040808220805492905590919082156108fc0290839051600060405180830381858888f1935050505015156104fb57600080fd5b81600160a060020a03167fd7dee2702d63ad89917b6a4da9981c90c4d24f8c2bdfd64c604ecae57d8d06518260405190815260200160405180910390a25050565b60008282018381101561054b57fe5b93925050505600a165627a7a72305820b275974688f037b488146289ceb926584b3323febeb882aeae13bf10f90e62ab0029",
  "source": "pragma solidity ^0.4.18;\n\nimport \"zeppelin-solidity/contracts/crowdsale/CappedCrowdsale.sol\";\nimport \"zeppelin-solidity/contracts/crowdsale/RefundableCrowdsale.sol\";\nimport 'zeppelin-solidity/contracts/math/SafeMath.sol';\nimport \"./RDT.sol\";\n\ncontract ICO is CappedCrowdsale, RefundableCrowdsale{\n  uint256 icoStartTime = 1518444000;\n  uint256 icoEndTime = 1522260000;\n  uint256 icoCap = 5000*1 ether - weiRaised;\n  uint256 icoRate = 6000;\n  uint256 icoGoal = 250 * 1 ether;\n  uint256 public bonus1End = 3 * 1 days;\n  uint256 public bonus2End = 10 * 1 days;\n  uint256 public bonus3End = 17 * 1 days;\n  uint256 public bonus4End = 24 * 1 days;\n  function ICO(uint256 _startTime, uint256 _endTime, uint256 _rate, uint256 _goal, uint256 _cap, address _wallet, MintableToken _token) public\n  CappedCrowdsale(_cap)\n  FinalizableCrowdsale()\n  RefundableCrowdsale(_goal)\n  Crowdsale(_startTime, _endTime, _rate, _wallet)\n  {\n    require(_goal <= _cap);\n    require(_token != address(0));\n    token = _token;\n  }\n  function createTokenContract() internal returns (MintableToken) {\n    return token;\n  }\n  function getTokenAmount(uint256 weiAmount) internal view returns(uint256) {\n    uint256 bonus = 0;\n    if(now <= startTime + bonus1End){\n      bonus = rate.mul(20).div(100);\n    }\n    if(now > startTime + bonus1End && now <= startTime + bonus2End){\n      bonus = rate.mul(15).div(100);\n    }\n    if(now > startTime + bonus2End && now <= startTime + bonus3End){\n      bonus = rate.mul(10).div(100);\n    }\n    if(now > startTime + bonus3End && now <= startTime + bonus4End){\n      bonus = rate.mul(5).div(100);\n    }\n    uint256 rateWithBonus = rate.add(bonus);\n    return weiAmount.mul(rateWithBonus);\n  }\n}\n",
  "sourcePath": "/home/ch/projects/rd_smart_contract/contracts/ICO.sol",
  "compiler": {
    "name": "solc",
    "version": "0.4.18+commit.9cf6e910.Emscripten.clang"
  },
  "schemaVersion": "1.0.1",
  "updatedAt": "2018-01-09T21:15:52.220Z"
}