{
  "contractName": "ICO",
  "abi": [
    {
      "constant": true,
      "inputs": [],
      "name": "rate",
      "outputs": [
        {
          "name": "",
          "type": "uint256"
        }
      ],
      "payable": false,
      "stateMutability": "view",
      "type": "function"
    },
    {
      "constant": true,
      "inputs": [],
      "name": "endTime",
      "outputs": [
        {
          "name": "",
          "type": "uint256"
        }
      ],
      "payable": false,
      "stateMutability": "view",
      "type": "function"
    },
    {
      "constant": true,
      "inputs": [],
      "name": "cap",
      "outputs": [
        {
          "name": "",
          "type": "uint256"
        }
      ],
      "payable": false,
      "stateMutability": "view",
      "type": "function"
    },
    {
      "constant": true,
      "inputs": [],
      "name": "goal",
      "outputs": [
        {
          "name": "",
          "type": "uint256"
        }
      ],
      "payable": false,
      "stateMutability": "view",
      "type": "function"
    },
    {
      "constant": true,
      "inputs": [],
      "name": "weiRaised",
      "outputs": [
        {
          "name": "",
          "type": "uint256"
        }
      ],
      "payable": false,
      "stateMutability": "view",
      "type": "function"
    },
    {
      "constant": false,
      "inputs": [],
      "name": "finalize",
      "outputs": [],
      "payable": false,
      "stateMutability": "nonpayable",
      "type": "function"
    },
    {
      "constant": true,
      "inputs": [],
      "name": "wallet",
      "outputs": [
        {
          "name": "",
          "type": "address"
        }
      ],
      "payable": false,
      "stateMutability": "view",
      "type": "function"
    },
    {
      "constant": true,
      "inputs": [],
      "name": "startTime",
      "outputs": [
        {
          "name": "",
          "type": "uint256"
        }
      ],
      "payable": false,
      "stateMutability": "view",
      "type": "function"
    },
    {
      "constant": true,
      "inputs": [],
      "name": "goalReached",
      "outputs": [
        {
          "name": "",
          "type": "bool"
        }
      ],
      "payable": false,
      "stateMutability": "view",
      "type": "function"
    },
    {
      "constant": true,
      "inputs": [],
      "name": "isFinalized",
      "outputs": [
        {
          "name": "",
          "type": "bool"
        }
      ],
      "payable": false,
      "stateMutability": "view",
      "type": "function"
    },
    {
      "constant": true,
      "inputs": [],
      "name": "owner",
      "outputs": [
        {
          "name": "",
          "type": "address"
        }
      ],
      "payable": false,
      "stateMutability": "view",
      "type": "function"
    },
    {
      "constant": false,
      "inputs": [],
      "name": "claimRefund",
      "outputs": [
        {
          "name": "",
          "type": "uint256"
        }
      ],
      "payable": false,
      "stateMutability": "nonpayable",
      "type": "function"
    },
    {
      "constant": false,
      "inputs": [
        {
          "name": "beneficiary",
          "type": "address"
        }
      ],
      "name": "buyTokens",
      "outputs": [
        {
          "name": "",
          "type": "bool"
        }
      ],
      "payable": true,
      "stateMutability": "payable",
      "type": "function"
    },
    {
      "constant": true,
      "inputs": [],
      "name": "hasEnded",
      "outputs": [
        {
          "name": "",
          "type": "bool"
        }
      ],
      "payable": false,
      "stateMutability": "view",
      "type": "function"
    },
    {
      "constant": false,
      "inputs": [
        {
          "name": "newOwner",
          "type": "address"
        }
      ],
      "name": "transferOwnership",
      "outputs": [],
      "payable": false,
      "stateMutability": "nonpayable",
      "type": "function"
    },
    {
      "constant": true,
      "inputs": [],
      "name": "vault",
      "outputs": [
        {
          "name": "",
          "type": "address"
        }
      ],
      "payable": false,
      "stateMutability": "view",
      "type": "function"
    },
    {
      "constant": true,
      "inputs": [
        {
          "name": "beneficiary",
          "type": "address"
        }
      ],
      "name": "token",
      "outputs": [
        {
          "name": "",
          "type": "address"
        }
      ],
      "payable": false,
      "stateMutability": "view",
      "type": "function"
    },
    {
      "constant": true,
      "inputs": [
        {
          "name": "_startTime",
          "type": "uint256"
        },
        {
          "name": "_endTime",
          "type": "uint256"
        },
        {
          "name": "_rate",
          "type": "uint256"
        },
        {
          "name": "_goal",
          "type": "uint256"
        },
        {
          "name": "_cap",
          "type": "uint256"
        },
        {
          "name": "_wallet",
          "type": "address"
        },
        {
          "name": "_token",
          "type": "address"
        }
      ],
      "name": "hasEnded",
      "outputs": [
        {
          "name": "",
          "type": "bool"
        }
      ],
      "payable": false,
      "stateMutability": "nonpayable",
      "type": "constructor"
    },
    {
      "constant": false,
      "inputs": [
        {
          "name": "newOwner",
          "type": "address"
        }
      ],
      "name": "transferOwnership",
      "outputs": [],
      "payable": true,
      "stateMutability": "payable",
      "type": "fallback"
    },
    {
      "constant": true,
      "inputs": [],
      "name": "Finalized",
      "outputs": [
        {
          "name": "",
          "type": "address"
        }
      ],
      "payable": false,
      "stateMutability": "view",
      "type": "event",
      "anonymous": false
    },
    {
      "constant": true,
      "inputs": [
        {
          "indexed": true,
          "name": "previousOwner",
          "type": "address"
        },
        {
          "indexed": true,
          "name": "newOwner",
          "type": "address"
        }
      ],
      "name": "OwnershipTransferred",
      "outputs": [
        {
          "name": "",
          "type": "address"
        }
      ],
      "payable": false,
      "stateMutability": "view",
      "type": "event",
      "anonymous": false
    },
    {
      "inputs": [
        {
          "name": "purchaser",
          "type": "address",
          "indexed": true
        },
        {
          "name": "beneficiary",
          "type": "address",
          "indexed": true
        },
        {
          "name": "value",
          "type": "uint256",
          "indexed": false
        },
        {
          "name": "amount",
          "type": "uint256",
          "indexed": false
        },
        {
          "name": "_cap",
          "type": "uint256"
        },
        {
          "name": "_wallet",
          "type": "address"
        },
        {
          "name": "_token",
          "type": "address"
        }
      ],
      "payable": false,
      "stateMutability": "nonpayable",
      "type": "event",
      "anonymous": false,
      "name": "TokenPurchase"
    },
    {
      "payable": true,
      "stateMutability": "payable",
      "type": "fallback"
    },
    {
      "anonymous": false,
      "inputs": [],
      "name": "Finalized",
      "type": "event"
    },
    {
      "anonymous": false,
      "inputs": [
        {
          "indexed": true,
          "name": "previousOwner",
          "type": "address"
        },
        {
          "indexed": true,
          "name": "newOwner",
          "type": "address"
        }
      ],
      "name": "OwnershipTransferred",
      "type": "event"
    },
    {
      "anonymous": false,
      "inputs": [
        {
          "indexed": true,
          "name": "purchaser",
          "type": "address"
        },
        {
          "indexed": true,
          "name": "beneficiary",
          "type": "address"
        },
        {
          "indexed": false,
          "name": "value",
          "type": "uint256"
        },
        {
          "indexed": false,
          "name": "amount",
          "type": "uint256"
        }
      ],
      "name": "TokenPurchase",
      "type": "event"
    }
  ],
  "bytecode": "0x60606040526007805460a060020a60ff0219169055341561001f57600080fd5b60405160e0806110c783398101604052808051919060200180519190602001805191906020018051919060200180519190602001805191906020018051915084905083888888864284101561007357600080fd5b8383101561008057600080fd5b6000821161008d57600080fd5b600160a060020a03811615156100a257600080fd5b6100b764010000000061087d6101d582021704565b60008054600160a060020a0319908116600160a060020a039384161782556001969096556002949094556004929092556003805490941691161790915581116100ff57600080fd5b60065560078054600160a060020a03191633600160a060020a03161790556000811161012a57600080fd5b600354600160a060020a031661013e6101e4565b600160a060020a039091168152602001604051809103906000f080151561016457600080fd5b60098054600160a060020a031916600160a060020a03929092169190911790556008558284111561019457600080fd5b600160a060020a03811615156101a957600080fd5b60008054600160a060020a031916600160a060020a0392909216919091179055506101f4945050505050565b600054600160a060020a031690565b60405161060c80610abb83390190565b6108b8806102036000396000f3006060604052600436106100d75763ffffffff60e060020a6000350416632c4e722e81146100e25780633197cbb614610107578063355274ea1461011a578063401938831461012d5780634042b66f146101405780634bb278f314610153578063521eb2731461016657806378e97925146101955780637d3d6522146101a85780638d4e4083146101cf5780638da5cb5b146101e2578063b5545a3c146101f5578063ec8ac4d814610208578063ecb70fb71461021c578063f2fde38b1461022f578063fbfa77cf1461024e578063fc0c546a14610261575b6100e033610274565b005b34156100ed57600080fd5b6100f561039d565b60405190815260200160405180910390f35b341561011257600080fd5b6100f56103a3565b341561012557600080fd5b6100f56103a9565b341561013857600080fd5b6100f56103af565b341561014b57600080fd5b6100f56103b5565b341561015e57600080fd5b6100e06103bb565b341561017157600080fd5b61017961045a565b604051600160a060020a03909116815260200160405180910390f35b34156101a057600080fd5b6100f5610469565b34156101b357600080fd5b6101bb61046f565b604051901515815260200160405180910390f35b34156101da57600080fd5b6101bb61047a565b34156101ed57600080fd5b61017961048a565b341561020057600080fd5b6100e0610499565b6100e0600160a060020a0360043516610274565b341561022757600080fd5b6101bb610524565b341561023a57600080fd5b6100e0600160a060020a0360043516610546565b341561025957600080fd5b6101796105e1565b341561026c57600080fd5b6101796105f0565b600080600160a060020a038316151561028c57600080fd5b6102946105ff565b151561029f57600080fd5b3491506102ab82610632565b6005549091506102c1908363ffffffff6106da16565b60055560008054600160a060020a0316906340c10f1990859084906040516020015260405160e060020a63ffffffff8516028152600160a060020a0390921660048301526024820152604401602060405180830381600087803b151561032657600080fd5b6102c65a03f1151561033757600080fd5b505050604051805190505082600160a060020a031633600160a060020a03167f623b3804fa71d67900d064613da8f94b9617215ee90799290593e1745087ad18848460405191825260208201526040908101905180910390a36103986106f4565b505050565b60045481565b60025481565b60065481565b60085481565b60055481565b60075433600160a060020a039081169116146103d657600080fd5b60075460a060020a900460ff16156103ed57600080fd5b6103f5610524565b151561040057600080fd5b61040861075b565b7f6823b073d48d6e3a7d385eeb601452d680e74bb46afe3255a7d778f3a9b1768160405160405180910390a16007805474ff0000000000000000000000000000000000000000191660a060020a179055565b600354600160a060020a031681565b60015481565b600854600554101590565b60075460a060020a900460ff1681565b600754600160a060020a031681565b60075460a060020a900460ff1615156104b157600080fd5b6104b961046f565b156104c357600080fd5b600954600160a060020a031663fa89401a3360405160e060020a63ffffffff8416028152600160a060020a039091166004820152602401600060405180830381600087803b151561051357600080fd5b6102c65a03f1151561039857600080fd5b60065460055460009190101561053861081a565b806105405750805b91505090565b60075433600160a060020a0390811691161461056157600080fd5b600160a060020a038116151561057657600080fd5b600754600160a060020a0380831691167f8be0079c531659141344cd1fd0a4f28419497f9722a3daafe3b4186f6b6457e060405160405180910390a36007805473ffffffffffffffffffffffffffffffffffffffff1916600160a060020a0392909216919091179055565b600954600160a060020a031681565b600054600160a060020a031681565b60008060065461061a346005546106da90919063ffffffff16565b11159050610626610822565b80156105405750919050565b60008080635a8592604211610647576104b091505b635a8592604211801561065e5750635a8ecce04211155b156106695761038491505b635a8ecce0421180156106805750635a9807604211155b1561068b5761025891505b635a980760421180156106a25750635aa141e04211155b156106ad5761012c91505b6004546106c0908363ffffffff6106da16565b90506106d2848263ffffffff61085216565b949350505050565b6000828201838110156106e957fe5b8091505b5092915050565b600954600160a060020a031663f340fa01343360405160e060020a63ffffffff8516028152600160a060020a0390911660048201526024016000604051808303818588803b151561074457600080fd5b6125ee5a03f1151561075557600080fd5b50505050565b61076361046f565b156107c057600954600160a060020a03166343d726d66040518163ffffffff1660e060020a028152600401600060405180830381600087803b15156107a757600080fd5b6102c65a03f115156107b857600080fd5b505050610814565b600954600160a060020a0316638c52dc416040518163ffffffff1660e060020a028152600401600060405180830381600087803b15156107ff57600080fd5b6102c65a03f1151561081057600080fd5b5050505b6108185b565b600254421190565b6000806000600154421015801561083b57506002544211155b91505034151581801561084b5750805b9250505090565b60008083151561086557600091506106ed565b5082820282848281151561087557fe5b04146106e957fe5b600054600160a060020a0316905600a165627a7a723058202119c16e5e982f9e6090bb506500e15cb6bbe477729dc23d1c0f40fb410ea04300296060604052341561000f57600080fd5b60405160208061060c8339810160405280805160008054600160a060020a03191633600160a060020a039081169190911790915590925082161515905061005557600080fd5b60028054600160a060020a031916600160a060020a03929092169190911760a060020a60ff021916905561057e8061008e6000396000f3006060604052600436106100985763ffffffff7c010000000000000000000000000000000000000000000000000000000060003504166343d726d6811461009d578063521eb273146100b25780638c52dc41146100e15780638da5cb5b146100f4578063c19d93fb14610107578063cb13cddb1461013e578063f2fde38b1461016f578063f340fa011461018e578063fa89401a146101a2575b600080fd5b34156100a857600080fd5b6100b06101c1565b005b34156100bd57600080fd5b6100c561029c565b604051600160a060020a03909116815260200160405180910390f35b34156100ec57600080fd5b6100b06102ab565b34156100ff57600080fd5b6100c561033c565b341561011257600080fd5b61011a61034b565b6040518082600281111561012a57fe5b60ff16815260200191505060405180910390f35b341561014957600080fd5b61015d600160a060020a036004351661035b565b60405190815260200160405180910390f35b341561017a57600080fd5b6100b0600160a060020a036004351661036d565b6100b0600160a060020a0360043516610408565b34156101ad57600080fd5b6100b0600160a060020a036004351661048c565b60005433600160a060020a039081169116146101dc57600080fd5b60006002805460a060020a900460ff16908111156101f657fe5b1461020057600080fd5b6002805474ff00000000000000000000000000000000000000001916740200000000000000000000000000000000000000001790557f1cdde67b72a90f19919ac732a437ac2f7a10fc128d28c2a6e525d89ce5cd9d3a60405160405180910390a1600254600160a060020a039081169030163180156108fc0290604051600060405180830381858888f19350505050151561029a57600080fd5b565b600254600160a060020a031681565b60005433600160a060020a039081169116146102c657600080fd5b60006002805460a060020a900460ff16908111156102e057fe5b146102ea57600080fd5b6002805474ff0000000000000000000000000000000000000000191660a060020a1790557f599d8e5a83cffb867d051598c4d70e805d59802d8081c1c7d6dffc5b6aca2b8960405160405180910390a1565b600054600160a060020a031681565b60025460a060020a900460ff1681565b60016020526000908152604090205481565b60005433600160a060020a0390811691161461038857600080fd5b600160a060020a038116151561039d57600080fd5b600054600160a060020a0380831691167f8be0079c531659141344cd1fd0a4f28419497f9722a3daafe3b4186f6b6457e060405160405180910390a36000805473ffffffffffffffffffffffffffffffffffffffff1916600160a060020a0392909216919091179055565b60005433600160a060020a0390811691161461042357600080fd5b60006002805460a060020a900460ff169081111561043d57fe5b1461044757600080fd5b600160a060020a038116600090815260016020526040902054610470903463ffffffff61053c16565b600160a060020a03909116600090815260016020526040902055565b600060016002805460a060020a900460ff16908111156104a857fe5b146104b257600080fd5b50600160a060020a038116600081815260016020526040808220805492905590919082156108fc0290839051600060405180830381858888f1935050505015156104fb57600080fd5b81600160a060020a03167fd7dee2702d63ad89917b6a4da9981c90c4d24f8c2bdfd64c604ecae57d8d06518260405190815260200160405180910390a25050565b60008282018381101561054b57fe5b93925050505600a165627a7a72305820b275974688f037b488146289ceb926584b3323febeb882aeae13bf10f90e62ab0029",
  "source": "pragma solidity ^0.4.18;\n\nimport \"zeppelin-solidity/contracts/crowdsale/CappedCrowdsale.sol\";\nimport \"zeppelin-solidity/contracts/crowdsale/RefundableCrowdsale.sol\";\nimport 'zeppelin-solidity/contracts/math/SafeMath.sol';\nimport \"./RDT.sol\";\n\ncontract ICO is CappedCrowdsale, RefundableCrowdsale{\n  /* uint256 icoStartTime = 1518444000;\n  uint256 icoEndTime = 1522260000;\n  uint256 icoCap = 5000*1 ether - weiRaised;\n  uint256 icoRate = 6000;\n  uint256 icoGoal = 250 * 1 ether; */\n  function ICO(uint256 _startTime, uint256 _endTime, uint256 _rate, uint256 _goal, uint256 _cap, address _wallet, MintableToken _token) public\n  CappedCrowdsale(_cap)\n  FinalizableCrowdsale()\n  RefundableCrowdsale(_goal)\n  Crowdsale(_startTime, _endTime, _rate, _wallet)\n  {\n    require(_goal <= _cap);\n    require(_token != address(0));\n    token = _token;\n  }\n  function createTokenContract() internal returns (MintableToken) {\n    return token;\n  }\n  function getTokenAmount(uint256 weiAmount) internal view returns(uint256) {\n    uint256 bonus = 0;\n    if(now <= 1518703200){\n      bonus = 1200;\n    }\n    if(now > 1518703200 && now <= 1519308000){\n      bonus = 900;\n    }\n    if(now > 1519308000 && now <= 1519912800){\n      bonus = 600;\n    }\n    if(now > 1519912800 && now <= 1520517600){\n      bonus = 300;\n    }\n    uint256 rateWithBonus = rate.add(bonus);\n    return weiAmount.mul(rateWithBonus);\n  }\n}\n",
  "sourcePath": "/home/ch/projects/rd_smart_contract/contracts/ICO.sol",
  "compiler": {
    "name": "solc",
    "version": "0.4.18+commit.9cf6e910.Emscripten.clang"
  },
  "schemaVersion": "1.0.1",
  "updatedAt": "2018-01-22T19:29:32.490Z"
}