{
  "contractName": "ICO",
  "abi": [
    {
      "constant": false,
      "inputs": [],
      "name": "initICO",
      "outputs": [
        {
          "name": "",
          "type": "bool"
        }
      ],
      "payable": false,
      "stateMutability": "nonpayable",
      "type": "function"
    },
    {
      "constant": true,
      "inputs": [],
      "name": "rate",
      "outputs": [
        {
          "name": "",
          "type": "uint256"
        }
      ],
      "payable": false,
      "stateMutability": "view",
      "type": "function"
    },
    {
      "constant": true,
      "inputs": [],
      "name": "endTime",
      "outputs": [
        {
          "name": "",
          "type": "uint256"
        }
      ],
      "payable": false,
      "stateMutability": "view",
      "type": "function"
    },
    {
      "constant": true,
      "inputs": [],
      "name": "cap",
      "outputs": [
        {
          "name": "",
          "type": "uint256"
        }
      ],
      "payable": false,
      "stateMutability": "view",
      "type": "function"
    },
    {
      "constant": true,
      "inputs": [],
      "name": "weiRaised",
      "outputs": [
        {
          "name": "",
          "type": "uint256"
        }
      ],
      "payable": false,
      "stateMutability": "view",
      "type": "function"
    },
    {
      "constant": true,
      "inputs": [],
      "name": "wallet",
      "outputs": [
        {
          "name": "",
          "type": "address"
        }
      ],
      "payable": false,
      "stateMutability": "view",
      "type": "function"
    },
    {
      "constant": true,
      "inputs": [
        {
          "name": "_owner",
          "type": "address"
        }
      ],
      "name": "balanceOf",
      "outputs": [
        {
          "name": "balance",
          "type": "uint256"
        }
      ],
      "payable": false,
      "stateMutability": "view",
      "type": "function"
    },
    {
      "constant": true,
      "inputs": [
        {
          "name": "_owner",
          "type": "address"
        }
      ],
      "name": "startTime",
      "outputs": [
        {
          "name": "",
          "type": "uint256"
        }
      ],
      "payable": false,
      "stateMutability": "view",
      "type": "function"
    },
    {
      "constant": true,
      "inputs": [],
      "name": "owner",
      "outputs": [
        {
          "name": "",
          "type": "address"
        }
      ],
      "payable": false,
      "stateMutability": "view",
      "type": "function"
    },
    {
      "constant": true,
      "inputs": [],
      "name": "minAmount",
      "outputs": [
        {
          "name": "",
          "type": "uint256"
        }
      ],
      "payable": false,
      "stateMutability": "view",
      "type": "function"
    },
    {
      "constant": false,
      "inputs": [
        {
          "name": "_spender",
          "type": "address"
        }
      ],
      "name": "allowTransfer",
      "outputs": [
        {
          "name": "",
          "type": "bool"
        }
      ],
      "payable": false,
      "stateMutability": "nonpayable",
      "type": "function"
    },
    {
      "constant": false,
      "inputs": [
        {
          "name": "beneficiary",
          "type": "address"
        }
      ],
      "name": "buyTokens",
      "outputs": [
        {
          "name": "",
          "type": "bool"
        }
      ],
      "payable": true,
      "stateMutability": "payable",
      "type": "function"
    },
    {
      "constant": true,
      "inputs": [
        {
          "name": "beneficiary",
          "type": "address"
        }
      ],
      "name": "hasEnded",
      "outputs": [
        {
          "name": "",
          "type": "bool"
        }
      ],
      "payable": false,
      "stateMutability": "view",
      "type": "function"
    },
    {
      "constant": false,
      "inputs": [
        {
          "name": "newOwner",
          "type": "address"
        }
      ],
      "name": "transferOwnership",
      "outputs": [
        {
          "name": "",
          "type": "bool"
        }
      ],
      "payable": false,
      "stateMutability": "nonpayable",
      "type": "function"
    },
    {
      "constant": true,
      "inputs": [
        {
          "name": "newOwner",
          "type": "address"
        }
      ],
      "name": "token",
      "outputs": [
        {
          "name": "",
          "type": "address"
        }
      ],
      "payable": false,
      "stateMutability": "view",
      "type": "function"
    },
    {
      "constant": true,
      "inputs": [
        {
          "name": "_startTime",
          "type": "uint256"
        },
        {
          "name": "_endTime",
          "type": "uint256"
        },
        {
          "name": "_rate",
          "type": "uint256"
        },
        {
          "name": "_cap",
          "type": "uint256"
        },
        {
          "name": "_wallet",
          "type": "address"
        },
        {
          "name": "_token",
          "type": "address"
        }
      ],
      "name": "token",
      "outputs": [
        {
          "name": "",
          "type": "address"
        }
      ],
      "payable": false,
      "stateMutability": "nonpayable",
      "type": "constructor"
    },
    {
      "inputs": [
        {
          "name": "_startTime",
          "type": "uint256"
        },
        {
          "name": "_endTime",
          "type": "uint256"
        },
        {
          "name": "_rate",
          "type": "uint256"
        },
        {
          "name": "_cap",
          "type": "uint256"
        },
        {
          "name": "_wallet",
          "type": "address"
        },
        {
          "name": "_token",
          "type": "address"
        }
      ],
      "payable": true,
      "stateMutability": "payable",
      "type": "fallback"
    },
    {
      "payable": true,
      "stateMutability": "payable",
      "type": "event",
      "anonymous": false,
      "inputs": [
        {
          "indexed": true,
          "name": "previousOwner",
          "type": "address"
        },
        {
          "indexed": true,
          "name": "newOwner",
          "type": "address"
        }
      ],
      "name": "OwnershipTransferred"
    },
    {
      "anonymous": false,
      "inputs": [
        {
          "indexed": true,
          "name": "purchaser",
          "type": "address"
        },
        {
          "indexed": true,
          "name": "beneficiary",
          "type": "address"
        },
        {
          "indexed": false,
          "name": "value",
          "type": "uint256"
        },
        {
          "indexed": false,
          "name": "amount",
          "type": "uint256"
        }
      ],
      "name": "TokenPurchase",
      "type": "event"
    },
    {
      "anonymous": false,
      "inputs": [
        {
          "indexed": true,
          "name": "purchaser",
          "type": "address"
        },
        {
          "indexed": true,
          "name": "beneficiary",
          "type": "address"
        },
        {
          "indexed": false,
          "name": "value",
          "type": "uint256"
        },
        {
          "indexed": false,
          "name": "amount",
          "type": "uint256"
        }
      ],
      "name": "TokenPurchase",
      "type": "event"
    }
  ],
  "bytecode": "0x606060405267016345785d8a0000600855341561001b57600080fd5b60405160c0806109188339810160405280805191906020018051919060200180519190602001805191906020018051919060200180519150839050868686854284101561006757600080fd5b8383101561007457600080fd5b6000821161008157600080fd5b600160a060020a038116151561009657600080fd5b6100ab64010000000061077061014f82021704565b60008054600160a060020a0319908116600160a060020a039384161782556001969096556002949094556004929092556003805490941691161790915581116100f357600080fd5b60065560078054600160a060020a03191633600160a060020a03908116919091179091558116151561012457600080fd5b60008054600160a060020a031916600160a060020a03929092169190911790555061015e9350505050565b600054600160a060020a031690565b6107ab8061016d6000396000f3006060604052600436106100c15763ffffffff60e060020a600035041663126b12e781146100cc5780632c4e722e146100f35780633197cbb614610118578063355274ea1461012b5780634042b66f1461013e578063521eb2731461015157806370a082311461018057806378e979251461019f5780638da5cb5b146101b25780639b2cb5d8146101c5578063b3490bfc146101d8578063ec8ac4d8146101f7578063ecb70fb71461020b578063f2fde38b1461021e578063fc0c546a1461023d575b6100ca33610250565b005b34156100d757600080fd5b6100df61034d565b604051901515815260200160405180910390f35b34156100fe57600080fd5b6101066103fa565b60405190815260200160405180910390f35b341561012357600080fd5b610106610400565b341561013657600080fd5b610106610406565b341561014957600080fd5b61010661040c565b341561015c57600080fd5b610164610412565b604051600160a060020a03909116815260200160405180910390f35b341561018b57600080fd5b610106600160a060020a0360043516610421565b34156101aa57600080fd5b61010661043c565b34156101bd57600080fd5b610164610442565b34156101d057600080fd5b610106610451565b34156101e357600080fd5b6100df600160a060020a0360043516610457565b6100ca600160a060020a0360043516610250565b341561021657600080fd5b6100df610505565b341561022957600080fd5b6100ca600160a060020a0360043516610527565b341561024857600080fd5b6101646105c2565b600080600160a060020a038316151561026857600080fd5b6102706105d1565b151561027b57600080fd5b349150610287826105ee565b60055490915061029d908363ffffffff61069616565b600555600160a060020a0383166000908152600960205260409020546102c9908263ffffffff61069616565b6009600085600160a060020a0316600160a060020a031681526020019081526020016000208190555082600160a060020a031633600160a060020a03167f623b3804fa71d67900d064613da8f94b9617215ee90799290593e1745087ad18848460405191825260208201526040908101905180910390a36103486106b0565b505050565b60075460009033600160a060020a0390811691161461036b57600080fd5b60008054600160a060020a0316906340c10f199030906a1c798431d82338075ba000906040516020015260405160e060020a63ffffffff8516028152600160a060020a0390921660048301526024820152604401602060405180830381600087803b15156103d857600080fd5b6102c65a03f115156103e957600080fd5b505050604051805150600191505090565b60045481565b60025481565b60065481565b60055481565b600354600160a060020a031681565b600160a060020a031660009081526009602052604090205490565b60015481565b600754600160a060020a031681565b60085481565b60075460009033600160a060020a0390811691161461047557600080fd5b60008054600160a060020a03169063095ea7b39084906a1c798431d82338075ba000906040516020015260405160e060020a63ffffffff8516028152600160a060020a0390921660048301526024820152604401602060405180830381600087803b15156104e257600080fd5b6102c65a03f115156104f357600080fd5b50505060405180515060019392505050565b6006546005546000919010156105196106e6565b806105215750805b91505090565b60075433600160a060020a0390811691161461054257600080fd5b600160a060020a038116151561055757600080fd5b600754600160a060020a0380831691167f8be0079c531659141344cd1fd0a4f28419497f9722a3daafe3b4186f6b6457e060405160405180910390a36007805473ffffffffffffffffffffffffffffffffffffffff1916600160a060020a0392909216919091179055565b600054600160a060020a031681565b6008546000903410156105e26106ee565b80156105215750919050565b60008080635a949f7f4211610603576104b091505b635a949f7f4211801561061a5750635a9dd9ff4211155b156106255761038491505b635a9dd9ff4211801561063c5750635aa7147f4211155b156106475761025891505b635aa7147f4211801561065e5750635ab04eff4211155b156106695761012c91505b60045461067c908363ffffffff61069616565b905061068e848263ffffffff61071516565b949350505050565b6000828201838110156106a557fe5b8091505b5092915050565b600354600160a060020a03163480156108fc0290604051600060405180830381858888f1935050505015156106e457600080fd5b565b600254421190565b6000806006546107093460055461069690919063ffffffff16565b111590506105e2610740565b60008083151561072857600091506106a9565b5082820282848281151561073857fe5b04146106a557fe5b6000806000600154421015801561075957506002544211155b9150503415158180156107695750805b9250505090565b600054600160a060020a0316905600a165627a7a7230582030b8bd73cd3a1a4baaef4f19dedc6f9c50ce103e623da17bf573b8f6b04160e80029",
  "source": "pragma solidity ^0.4.18;\n\nimport \"zeppelin-solidity/contracts/crowdsale/CappedCrowdsale.sol\";\nimport 'zeppelin-solidity/contracts/math/SafeMath.sol';\nimport \"zeppelin-solidity/contracts/ownership/Ownable.sol\";\nimport \"./RDT.sol\";\n\n\ncontract ICO is CappedCrowdsale, Ownable{\n  uint256 public minAmount = 1 ether/10;\n\n  mapping(address => uint256) balances;\n\n  function ICO(uint256 _startTime, uint256 _endTime, uint256 _rate, uint256 _cap, address _wallet, MintableToken _token) public\n  CappedCrowdsale(_cap)\n  Crowdsale(_startTime, _endTime, _rate, _wallet)\n  {\n    require(_token != address(0));\n    token = _token;\n  }\n  function createTokenContract() internal returns (MintableToken) {\n    return token;\n  }\n\n\n  function balanceOf(address _owner) public view returns (uint256 balance) {\n    return balances[_owner];\n  }\n\n  function getTokenAmount(uint256 weiAmount) internal view returns(uint256) {\n    uint256 bonus = 0;\n    if(now <= 1519689599){\n      bonus = 1200;\n    }\n    if(now > 1519689599 && now <= 1520294399){\n      bonus = 900;\n    }\n    if(now > 1520294399 && now <= 1520899199){\n      bonus = 600;\n    }\n    if(now > 1520899199 && now <= 1521503999){\n      bonus = 300;\n    }\n    uint256 rateWithBonus = rate.add(bonus);\n    return weiAmount.mul(rateWithBonus);\n  }\n\n  function validPurchase() internal view returns (bool) {\n    bool overMinAmount = msg.value >= minAmount;\n    return super.validPurchase() && overMinAmount;\n  }\n\n  function initICO() public onlyOwner returns (bool) {\n    token.mint(this, 34423767855514000000000000);\n    return true;\n  }\n\n\n  function allowTransfer(address _spender) public onlyOwner returns (bool){\n    token.approve(_spender, 34423767855514000000000000);\n    return true;\n  }\n\n  function buyTokens(address beneficiary) public payable {\n    require(beneficiary != address(0));\n    require(validPurchase());\n\n    uint256 weiAmount = msg.value;\n\n    // calculate token amount to be created\n    uint256 tokens = getTokenAmount(weiAmount);\n\n    // update state\n    weiRaised = weiRaised.add(weiAmount);\n\n\n    balances[beneficiary] = balances[beneficiary].add(tokens);\n    TokenPurchase(msg.sender, beneficiary, weiAmount, tokens);\n\n    forwardFunds();\n  }\n\n}\n",
  "sourcePath": "/home/ch/projects/rd_smart_contract/contracts/ICO.sol",
  "compiler": {
    "name": "solc",
    "version": "0.4.18+commit.9cf6e910.Emscripten.clang"
  },
  "schemaVersion": "1.0.1",
  "updatedAt": "2018-02-13T15:49:41.897Z"
}