{
  "contractName": "PreSaleExtended",
  "abi": [
    {
      "constant": true,
      "inputs": [],
      "name": "rate",
      "outputs": [
        {
          "name": "",
          "type": "uint256"
        }
      ],
      "payable": false,
      "stateMutability": "view",
      "type": "function"
    },
    {
      "constant": true,
      "inputs": [],
      "name": "endTime",
      "outputs": [
        {
          "name": "",
          "type": "uint256"
        }
      ],
      "payable": false,
      "stateMutability": "view",
      "type": "function"
    },
    {
      "constant": true,
      "inputs": [],
      "name": "cap",
      "outputs": [
        {
          "name": "",
          "type": "uint256"
        }
      ],
      "payable": false,
      "stateMutability": "view",
      "type": "function"
    },
    {
      "constant": true,
      "inputs": [],
      "name": "weiRaised",
      "outputs": [
        {
          "name": "",
          "type": "uint256"
        }
      ],
      "payable": false,
      "stateMutability": "view",
      "type": "function"
    },
    {
      "constant": true,
      "inputs": [],
      "name": "wallet",
      "outputs": [
        {
          "name": "",
          "type": "address"
        }
      ],
      "payable": false,
      "stateMutability": "view",
      "type": "function"
    },
    {
      "constant": true,
      "inputs": [],
      "name": "startTime",
      "outputs": [
        {
          "name": "",
          "type": "uint256"
        }
      ],
      "payable": false,
      "stateMutability": "view",
      "type": "function"
    },
    {
      "constant": true,
      "inputs": [],
      "name": "owner",
      "outputs": [
        {
          "name": "",
          "type": "address"
        }
      ],
      "payable": false,
      "stateMutability": "view",
      "type": "function"
    },
    {
      "constant": true,
      "inputs": [],
      "name": "minAmount",
      "outputs": [
        {
          "name": "",
          "type": "uint256"
        }
      ],
      "payable": false,
      "stateMutability": "view",
      "type": "function"
    },
    {
      "constant": false,
      "inputs": [
        {
          "name": "contractICO",
          "type": "address"
        }
      ],
      "name": "startICO",
      "outputs": [
        {
          "name": "",
          "type": "bool"
        }
      ],
      "payable": false,
      "stateMutability": "nonpayable",
      "type": "function"
    },
    {
      "constant": false,
      "inputs": [
        {
          "name": "beneficiary",
          "type": "address"
        }
      ],
      "name": "buyTokens",
      "outputs": [],
      "payable": true,
      "stateMutability": "payable",
      "type": "function"
    },
    {
      "constant": true,
      "inputs": [],
      "name": "hasEnded",
      "outputs": [
        {
          "name": "",
          "type": "bool"
        }
      ],
      "payable": false,
      "stateMutability": "view",
      "type": "function"
    },
    {
      "constant": false,
      "inputs": [
        {
          "name": "newOwner",
          "type": "address"
        }
      ],
      "name": "transferOwnership",
      "outputs": [],
      "payable": false,
      "stateMutability": "nonpayable",
      "type": "function"
    },
    {
      "constant": true,
      "inputs": [],
      "name": "token",
      "outputs": [
        {
          "name": "",
          "type": "address"
        }
      ],
      "payable": false,
      "stateMutability": "view",
      "type": "function"
    },
    {
      "inputs": [
        {
          "name": "_startTime",
          "type": "uint256"
        },
        {
          "name": "_endTime",
          "type": "uint256"
        },
        {
          "name": "_rate",
          "type": "uint256"
        },
        {
          "name": "_cap",
          "type": "uint256"
        },
        {
          "name": "_wallet",
          "type": "address"
        },
        {
          "name": "_token",
          "type": "address"
        },
        {
          "name": "_weiRaised",
          "type": "uint256"
        }
      ],
      "payable": false,
      "stateMutability": "nonpayable",
      "type": "constructor"
    },
    {
      "payable": true,
      "stateMutability": "payable",
      "type": "fallback"
    },
    {
      "anonymous": false,
      "inputs": [
        {
          "indexed": true,
          "name": "previousOwner",
          "type": "address"
        },
        {
          "indexed": true,
          "name": "newOwner",
          "type": "address"
        }
      ],
      "name": "OwnershipTransferred",
      "type": "event"
    },
    {
      "anonymous": false,
      "inputs": [
        {
          "indexed": true,
          "name": "purchaser",
          "type": "address"
        },
        {
          "indexed": true,
          "name": "beneficiary",
          "type": "address"
        },
        {
          "indexed": false,
          "name": "value",
          "type": "uint256"
        },
        {
          "indexed": false,
          "name": "amount",
          "type": "uint256"
        }
      ],
      "name": "TokenPurchase",
      "type": "event"
    }
  ],
  "bytecode": "0x606060405267016345785d8a0000600855341561001b57600080fd5b60405160e0806107ab833981016040528080519190602001805191906020018051919060200180519190602001805191906020018051919060200180519150849050878787864284101561006e57600080fd5b8383101561007b57600080fd5b6000821161008857600080fd5b600160a060020a038116151561009d57600080fd5b6100b26401000000006105eb61016782021704565b60008054600160a060020a0319908116600160a060020a039384161782556001969096556002949094556004929092556003805490941691161790915581116100fa57600080fd5b60065560078054600160a060020a03191633600160a060020a03908116919091179091558216151561012b57600080fd5b6000811161013857600080fd5b60008054600160a060020a031916600160a060020a039390931692909217909155600555506101769350505050565b600054600160a060020a031690565b610626806101856000396000f3006060604052600436106100ab5763ffffffff60e060020a6000350416632c4e722e81146100b65780633197cbb6146100db578063355274ea146100ee5780634042b66f14610101578063521eb2731461011457806378e97925146101435780638da5cb5b146101565780639b2cb5d814610169578063c7a9d6de1461017c578063ec8ac4d8146101af578063ecb70fb7146101c3578063f2fde38b146101d6578063fc0c546a146101f5575b6100b433610208565b005b34156100c157600080fd5b6100c9610331565b60405190815260200160405180910390f35b34156100e657600080fd5b6100c9610337565b34156100f957600080fd5b6100c961033d565b341561010c57600080fd5b6100c9610343565b341561011f57600080fd5b610127610349565b604051600160a060020a03909116815260200160405180910390f35b341561014e57600080fd5b6100c9610358565b341561016157600080fd5b61012761035e565b341561017457600080fd5b6100c961036d565b341561018757600080fd5b61019b600160a060020a0360043516610373565b604051901515815260200160405180910390f35b6100b4600160a060020a0360043516610208565b34156101ce57600080fd5b61019b61040b565b34156101e157600080fd5b6100b4600160a060020a036004351661042d565b341561020057600080fd5b6101276104c8565b600080600160a060020a038316151561022057600080fd5b6102286104d7565b151561023357600080fd5b34915061023f826104f4565b600554909150610255908363ffffffff61051116565b60055560008054600160a060020a0316906340c10f1990859084906040516020015260405160e060020a63ffffffff8516028152600160a060020a0390921660048301526024820152604401602060405180830381600087803b15156102ba57600080fd5b6102c65a03f115156102cb57600080fd5b505050604051805190505082600160a060020a031633600160a060020a03167f623b3804fa71d67900d064613da8f94b9617215ee90799290593e1745087ad18848460405191825260208201526040908101905180910390a361032c61052b565b505050565b60045481565b60025481565b60065481565b60055481565b600354600160a060020a031681565b60015481565b600754600160a060020a031681565b60085481565b60075460009033600160a060020a0390811691161461039157600080fd5b600254421161039f57600080fd5b600054600160a060020a031663f2fde38b8360405160e060020a63ffffffff8416028152600160a060020a039091166004820152602401600060405180830381600087803b15156103ef57600080fd5b6102c65a03f1151561040057600080fd5b506001949350505050565b60065460055460009190101561041f610561565b806104275750805b91505090565b60075433600160a060020a0390811691161461044857600080fd5b600160a060020a038116151561045d57600080fd5b600754600160a060020a0380831691167f8be0079c531659141344cd1fd0a4f28419497f9722a3daafe3b4186f6b6457e060405160405180910390a36007805473ffffffffffffffffffffffffffffffffffffffff1916600160a060020a0392909216919091179055565b600054600160a060020a031681565b6008546000903410156104e8610569565b80156104275750919050565b600061050b6004548361059090919063ffffffff16565b92915050565b60008282018381101561052057fe5b8091505b5092915050565b600354600160a060020a03163480156108fc0290604051600060405180830381858888f19350505050151561055f57600080fd5b565b600254421190565b6000806006546105843460055461051190919063ffffffff16565b111590506104e86105bb565b6000808315156105a35760009150610524565b508282028284828115156105b357fe5b041461052057fe5b600080600060015442101580156105d457506002544211155b9150503415158180156105e45750805b9250505090565b600054600160a060020a0316905600a165627a7a723058202e02129ae07d3918d39bbda045a3888c90f0ff0d290b172d99b691b90cc45b510029",
  "source": "pragma solidity ^0.4.11;\n\nimport \"./RDT.sol\";\nimport \"zeppelin-solidity/contracts/crowdsale/CappedCrowdsale.sol\";\nimport \"zeppelin-solidity/contracts/ownership/Ownable.sol\";\n\ncontract PreSaleExtended is CappedCrowdsale, Ownable{\n  uint256 public minAmount = 1 ether/10;\n\n  function PreSaleExtended(uint256 _startTime, uint256 _endTime, uint256 _rate, uint256 _cap, address _wallet, MintableToken _token, uint256 _weiRaised) public\n    CappedCrowdsale(_cap)\n    Crowdsale(_startTime, _endTime, _rate, _wallet)\n  {\n    require(_token!=address(0));\n    require(_weiRaised > 0);\n    token = _token;\n    weiRaised = _weiRaised;\n  }\n  function validPurchase() internal view returns (bool){\n    bool overMinAmount = msg.value >= minAmount;\n    return super.validPurchase() && overMinAmount;\n  }\n  function createTokenContract() internal returns (MintableToken) {\n    return token;\n  }\n  function startICO(address contractICO) onlyOwner public returns(bool){\n    require(now > endTime);\n    token.transferOwnership(contractICO);\n    return true;\n  }\n}\n",
  "sourcePath": "/home/ch/projects/rd_smart_contract/contracts/PreSaleExtended.sol",
  "compiler": {
    "name": "solc",
    "version": "0.4.18+commit.9cf6e910.Emscripten.clang"
  },
  "schemaVersion": "1.0.1",
  "updatedAt": "2018-01-22T23:14:34.491Z"
}