{
  "contractName": "PreSale",
  "abi": [
    {
      "constant": true,
      "inputs": [],
      "name": "rate",
      "outputs": [
        {
          "name": "",
          "type": "uint256"
        }
      ],
      "payable": false,
      "stateMutability": "view",
      "type": "function"
    },
    {
      "constant": true,
      "inputs": [],
      "name": "endTime",
      "outputs": [
        {
          "name": "",
          "type": "uint256"
        }
      ],
      "payable": false,
      "stateMutability": "view",
      "type": "function"
    },
    {
      "constant": true,
      "inputs": [],
      "name": "cap",
      "outputs": [
        {
          "name": "",
          "type": "uint256"
        }
      ],
      "payable": false,
      "stateMutability": "view",
      "type": "function"
    },
    {
      "constant": true,
      "inputs": [],
      "name": "weiRaised",
      "outputs": [
        {
          "name": "",
          "type": "uint256"
        }
      ],
      "payable": false,
      "stateMutability": "view",
      "type": "function"
    },
    {
      "constant": true,
      "inputs": [],
      "name": "wallet",
      "outputs": [
        {
          "name": "",
          "type": "address"
        }
      ],
      "payable": false,
      "stateMutability": "view",
      "type": "function"
    },
    {
      "constant": true,
      "inputs": [],
      "name": "startTime",
      "outputs": [
        {
          "name": "",
          "type": "uint256"
        }
      ],
      "payable": false,
      "stateMutability": "view",
      "type": "function"
    },
    {
      "constant": true,
      "inputs": [],
      "name": "owner",
      "outputs": [
        {
          "name": "",
          "type": "address"
        }
      ],
      "payable": false,
      "stateMutability": "view",
      "type": "function"
    },
    {
      "constant": true,
      "inputs": [],
      "name": "minAmount",
      "outputs": [
        {
          "name": "",
          "type": "uint256"
        }
      ],
      "payable": false,
      "stateMutability": "view",
      "type": "function"
    },
    {
      "constant": false,
      "inputs": [
        {
          "name": "contractICO",
          "type": "address"
        }
      ],
      "name": "startICO",
      "outputs": [
        {
          "name": "",
          "type": "bool"
        }
      ],
      "payable": false,
      "stateMutability": "nonpayable",
      "type": "function"
    },
    {
      "constant": false,
      "inputs": [
        {
          "name": "beneficiary",
          "type": "address"
        }
      ],
      "name": "buyTokens",
      "outputs": [],
      "payable": true,
      "stateMutability": "payable",
      "type": "function"
    },
    {
      "constant": true,
      "inputs": [],
      "name": "hasEnded",
      "outputs": [
        {
          "name": "",
          "type": "bool"
        }
      ],
      "payable": false,
      "stateMutability": "view",
      "type": "function"
    },
    {
      "constant": false,
      "inputs": [
        {
          "name": "newOwner",
          "type": "address"
        }
      ],
      "name": "transferOwnership",
      "outputs": [],
      "payable": false,
      "stateMutability": "nonpayable",
      "type": "function"
    },
    {
      "constant": true,
      "inputs": [],
      "name": "token",
      "outputs": [
        {
          "name": "",
          "type": "address"
        }
      ],
      "payable": false,
      "stateMutability": "view",
      "type": "function"
    },
    {
      "inputs": [
        {
          "name": "_startTime",
          "type": "uint256"
        },
        {
          "name": "_endTime",
          "type": "uint256"
        },
        {
          "name": "_rate",
          "type": "uint256"
        },
        {
          "name": "_cap",
          "type": "uint256"
        },
        {
          "name": "_wallet",
          "type": "address"
        }
      ],
      "payable": false,
      "stateMutability": "nonpayable",
      "type": "constructor"
    },
    {
      "payable": true,
      "stateMutability": "payable",
      "type": "fallback"
    },
    {
      "anonymous": false,
      "inputs": [
        {
          "indexed": true,
          "name": "previousOwner",
          "type": "address"
        },
        {
          "indexed": true,
          "name": "newOwner",
          "type": "address"
        }
      ],
      "name": "OwnershipTransferred",
      "type": "event"
    },
    {
      "anonymous": false,
      "inputs": [
        {
          "indexed": true,
          "name": "purchaser",
          "type": "address"
        },
        {
          "indexed": true,
          "name": "beneficiary",
          "type": "address"
        },
        {
          "indexed": false,
          "name": "value",
          "type": "uint256"
        },
        {
          "indexed": false,
          "name": "amount",
          "type": "uint256"
        }
      ],
      "name": "TokenPurchase",
      "type": "event"
    }
  ],
  "bytecode": "0x606060405267016345785d8a0000600855341561001b57600080fd5b60405160a080612ba783398101604052808051919060200180519190602001805191906020018051919060200180519150829050858585844284101561006057600080fd5b8383101561006d57600080fd5b6000821161007a57600080fd5b600160a060020a038116151561008f57600080fd5b6100a464010000000061064761011582021704565b60008054600160a060020a0319908116600160a060020a039384161782556001969096556002949094556004929092556003805490941691161790915581116100ec57600080fd5b600655505060078054600160a060020a03191633600160a060020a03161790555061014a915050565b600061011f61013a565b604051809103906000f080151561013557600080fd5b905090565b6040516111d1806119d683390190565b61187d806101596000396000f300606060405260043610620000b95763ffffffff60e060020a6000350416632c4e722e8114620000c65780633197cbb614620000ee578063355274ea14620001045780634042b66f146200011a578063521eb273146200013057806378e9792514620001625780638da5cb5b14620001785780639b2cb5d8146200018e578063c7a9d6de14620001a4578063ec8ac4d814620001da578063ecb70fb714620001f0578063f2fde38b1462000206578063fc0c546a1462000228575b620000c4336200023e565b005b3415620000d257600080fd5b620000dc62000373565b60405190815260200160405180910390f35b3415620000fa57600080fd5b620000dc62000379565b34156200011057600080fd5b620000dc6200037f565b34156200012657600080fd5b620000dc62000385565b34156200013c57600080fd5b620001466200038b565b604051600160a060020a03909116815260200160405180910390f35b34156200016e57600080fd5b620000dc6200039a565b34156200018457600080fd5b62000146620003a0565b34156200019a57600080fd5b620000dc620003af565b3415620001b057600080fd5b620001c6600160a060020a0360043516620003b5565b604051901515815260200160405180910390f35b620000c4600160a060020a03600435166200023e565b3415620001fc57600080fd5b620001c662000451565b34156200021257600080fd5b620000c4600160a060020a036004351662000476565b34156200023457600080fd5b6200014662000513565b600080600160a060020a03831615156200025757600080fd5b6200026162000522565b15156200026d57600080fd5b3491506200027b8262000542565b60055490915062000293908363ffffffff6200056116565b60055560008054600160a060020a0316906340c10f1990859084906040516020015260405160e060020a63ffffffff8516028152600160a060020a0390921660048301526024820152604401602060405180830381600087803b1515620002f957600080fd5b6102c65a03f115156200030b57600080fd5b505050604051805190505082600160a060020a031633600160a060020a03167f623b3804fa71d67900d064613da8f94b9617215ee90799290593e1745087ad18848460405191825260208201526040908101905180910390a36200036e6200057c565b505050565b60045481565b60025481565b60065481565b60055481565b600354600160a060020a031681565b60015481565b600754600160a060020a031681565b60085481565b60075460009033600160a060020a03908116911614620003d457600080fd5b6002544211620003e357600080fd5b600054600160a060020a031663f2fde38b8360405160e060020a63ffffffff8416028152600160a060020a039091166004820152602401600060405180830381600087803b15156200043457600080fd5b6102c65a03f115156200044657600080fd5b506001949350505050565b60065460055460009190101562000467620005b3565b80620004705750805b91505090565b60075433600160a060020a039081169116146200049257600080fd5b600160a060020a0381161515620004a857600080fd5b600754600160a060020a0380831691167f8be0079c531659141344cd1fd0a4f28419497f9722a3daafe3b4186f6b6457e060405160405180910390a36007805473ffffffffffffffffffffffffffffffffffffffff1916600160a060020a0392909216919091179055565b600054600160a060020a031681565b60085460009034101562000535620005bb565b8015620004705750919050565b60006200055b60045483620005e690919063ffffffff16565b92915050565b6000828201838110156200057157fe5b8091505b5092915050565b600354600160a060020a03163480156108fc0290604051600060405180830381858888f193505050501515620005b157600080fd5b565b600254421190565b600080600654620005d8346005546200056190919063ffffffff16565b111590506200053562000615565b600080831515620005fb576000915062000575565b508282028284828115156200060c57fe5b04146200057157fe5b600080600060015442101580156200062f57506002544211155b915050341515818015620006405750805b9250505090565b6000620006536200066f565b604051809103906000f08015156200066a57600080fd5b905090565b6040516111d18062000681833901905600606060409081526003805460a060020a60ff02191690558051908101604052600f81527f52617465204461746520546f6b656e0000000000000000000000000000000000602082015260049080516200005d929160200190620003cc565b5060408051908101604052600381527f524454000000000000000000000000000000000000000000000000000000000060208201526005908051620000a7929160200190620003cc565b506006805460ff191660121790556a295be96e64066972000000600755635ad33ec0600855635abbd820600955635c787600600a55600b8054600160a060020a03191673627306090abab3a6e1400e9345bc60c78a8bef5717905534156200010e57600080fd5b60038054600160a060020a03191633600160a060020a0390811691909117909155600b546a06342fd08f00f637800000916a02116545850052128000009173f17f52151ebef6c7334fad080c5704d77216b732916a027b46536c66c8e30000009173c5fdf4076b8f3a5357c5e395ab970b5b54098fef91620001a0911686640100000000620001e281026200052c1704565b50620001bb83856401000000006200052c620001e282021704565b50620001d681836401000000006200052c620001e282021704565b50505050505062000471565b60035460009033600160a060020a039081169116146200020157600080fd5b60035474010000000000000000000000000000000000000000900460ff16156200022a57600080fd5b600954429010156200023b57600080fd5b6007546000546200025b908464010000000062000afb6200028882021704565b11156200026757600080fd5b62000281838364010000000062000b0a6200029882021704565b9392505050565b6000828201838110156200028157fe5b60035460009033600160a060020a03908116911614620002b757600080fd5b60035474010000000000000000000000000000000000000000900460ff1615620002e057600080fd5b600054620002fd908364010000000062000afb6200028882021704565b6000908155600160a060020a03841681526001602052604090205462000332908364010000000062000afb6200028882021704565b600160a060020a0384166000818152600160205260409081902092909255907f0f6798a560793a54c3bcfe86a93cde1e73087d944c0ea20544137d41213968859084905190815260200160405180910390a2600160a060020a03831660007fddf252ad1be2c89b69c2b068fc378daa952ba7f163c4a11628f55a4df523b3ef8460405190815260200160405180910390a350600192915050565b828054600181600116156101000203166002900490600052602060002090601f016020900481019282601f106200040f57805160ff19168380011785556200043f565b828001600101855582156200043f579182015b828111156200043f57825182559160200191906001019062000422565b506200044d92915062000451565b5090565b6200046e91905b808211156200044d576000815560010162000458565b90565b610d5080620004816000396000f3006060604052600436106100fb5763ffffffff7c010000000000000000000000000000000000000000000000000000000060003504166305d2035b811461010057806306fdde0314610127578063095ea7b3146101b157806318160ddd146101d357806323b872dd146101f8578063313ce56714610220578063355274ea1461024957806340c10f191461025c578063599270441461027e57806366188463146102ad57806370a08231146102cf5780637d64bcb4146102ee5780638da5cb5b1461030157806395d89b4114610314578063a9059cbb14610327578063d73dd62314610349578063dd62ed3e1461036b578063f2fde38b14610390575b600080fd5b341561010b57600080fd5b6101136103b1565b604051901515815260200160405180910390f35b341561013257600080fd5b61013a6103c1565b60405160208082528190810183818151815260200191508051906020019080838360005b8381101561017657808201518382015260200161015e565b50505050905090810190601f1680156101a35780820380516001836020036101000a031916815260200191505b509250505060405180910390f35b34156101bc57600080fd5b610113600160a060020a036004351660243561045f565b34156101de57600080fd5b6101e66104cb565b60405190815260200160405180910390f35b341561020357600080fd5b610113600160a060020a03600435811690602435166044356104d1565b341561022b57600080fd5b61023361051d565b60405160ff909116815260200160405180910390f35b341561025457600080fd5b6101e6610526565b341561026757600080fd5b610113600160a060020a036004351660243561052c565b341561028957600080fd5b6102916105a3565b604051600160a060020a03909116815260200160405180910390f35b34156102b857600080fd5b610113600160a060020a03600435166024356105b2565b34156102da57600080fd5b6101e6600160a060020a03600435166106ac565b34156102f957600080fd5b6101136106c7565b341561030c57600080fd5b610291610752565b341561031f57600080fd5b61013a610761565b341561033257600080fd5b610113600160a060020a03600435166024356107cc565b341561035457600080fd5b610113600160a060020a036004351660243561080f565b341561037657600080fd5b6101e6600160a060020a03600435811690602435166108b3565b341561039b57600080fd5b6103af600160a060020a03600435166108de565b005b60035460a060020a900460ff1681565b60048054600181600116156101000203166002900480601f0160208091040260200160405190810160405280929190818152602001828054600181600116156101000203166002900480156104575780601f1061042c57610100808354040283529160200191610457565b820191906000526020600020905b81548152906001019060200180831161043a57829003601f168201915b505050505081565b600160a060020a03338116600081815260026020908152604080832094871680845294909152808220859055909291907f8c5be1e5ebec7d5bd14f71427d1e84f3dd0314c0f7b2291e5b200ac8c7c3b9259085905190815260200160405180910390a350600192915050565b60005481565b600042600854111515156104e457600080fd5b600b5433600160a060020a039081169116141561050a57600a5442101561050a57600080fd5b610515848484610979565b949350505050565b60065460ff1681565b60075481565b60035460009033600160a060020a0390811691161461054a57600080fd5b60035460a060020a900460ff161561056157600080fd5b6009544290101561057157600080fd5b600754600054610587908463ffffffff610afb16565b111561059257600080fd5b61059c8383610b0a565b9392505050565b600b54600160a060020a031681565b600160a060020a0333811660009081526002602090815260408083209386168352929052908120548083111561060f57600160a060020a033381166000908152600260209081526040808320938816835292905290812055610646565b61061f818463ffffffff610c1716565b600160a060020a033381166000908152600260209081526040808320938916835292905220555b600160a060020a0333811660008181526002602090815260408083209489168084529490915290819020547f8c5be1e5ebec7d5bd14f71427d1e84f3dd0314c0f7b2291e5b200ac8c7c3b925915190815260200160405180910390a35060019392505050565b600160a060020a031660009081526001602052604090205490565b60035460009033600160a060020a039081169116146106e557600080fd5b60035460a060020a900460ff16156106fc57600080fd5b6003805474ff0000000000000000000000000000000000000000191660a060020a1790557fae5184fba832cb2b1f702aca6117b8d265eaf03ad33eb133f19dde0f5920fa0860405160405180910390a150600190565b600354600160a060020a031681565b60058054600181600116156101000203166002900480601f0160208091040260200160405190810160405280929190818152602001828054600181600116156101000203166002900480156104575780601f1061042c57610100808354040283529160200191610457565b600042600854111515156107df57600080fd5b600b5433600160a060020a039081169116141561080557600a5442101561080557600080fd5b61059c8383610c29565b600160a060020a033381166000908152600260209081526040808320938616835292905290812054610847908363ffffffff610afb16565b600160a060020a0333811660008181526002602090815260408083209489168084529490915290819020849055919290917f8c5be1e5ebec7d5bd14f71427d1e84f3dd0314c0f7b2291e5b200ac8c7c3b92591905190815260200160405180910390a350600192915050565b600160a060020a03918216600090815260026020908152604080832093909416825291909152205490565b60035433600160a060020a039081169116146108f957600080fd5b600160a060020a038116151561090e57600080fd5b600354600160a060020a0380831691167f8be0079c531659141344cd1fd0a4f28419497f9722a3daafe3b4186f6b6457e060405160405180910390a36003805473ffffffffffffffffffffffffffffffffffffffff1916600160a060020a0392909216919091179055565b6000600160a060020a038316151561099057600080fd5b600160a060020a0384166000908152600160205260409020548211156109b557600080fd5b600160a060020a03808516600090815260026020908152604080832033909416835292905220548211156109e857600080fd5b600160a060020a038416600090815260016020526040902054610a11908363ffffffff610c1716565b600160a060020a038086166000908152600160205260408082209390935590851681522054610a46908363ffffffff610afb16565b600160a060020a03808516600090815260016020908152604080832094909455878316825260028152838220339093168252919091522054610a8e908363ffffffff610c1716565b600160a060020a03808616600081815260026020908152604080832033861684529091529081902093909355908516917fddf252ad1be2c89b69c2b068fc378daa952ba7f163c4a11628f55a4df523b3ef9085905190815260200160405180910390a35060019392505050565b60008282018381101561059c57fe5b60035460009033600160a060020a03908116911614610b2857600080fd5b60035460a060020a900460ff1615610b3f57600080fd5b600054610b52908363ffffffff610afb16565b6000908155600160a060020a038416815260016020526040902054610b7d908363ffffffff610afb16565b600160a060020a0384166000818152600160205260409081902092909255907f0f6798a560793a54c3bcfe86a93cde1e73087d944c0ea20544137d41213968859084905190815260200160405180910390a2600160a060020a03831660007fddf252ad1be2c89b69c2b068fc378daa952ba7f163c4a11628f55a4df523b3ef8460405190815260200160405180910390a350600192915050565b600082821115610c2357fe5b50900390565b6000600160a060020a0383161515610c4057600080fd5b600160a060020a033316600090815260016020526040902054821115610c6557600080fd5b600160a060020a033316600090815260016020526040902054610c8e908363ffffffff610c1716565b600160a060020a033381166000908152600160205260408082209390935590851681522054610cc3908363ffffffff610afb16565b600160a060020a0380851660008181526001602052604090819020939093559133909116907fddf252ad1be2c89b69c2b068fc378daa952ba7f163c4a11628f55a4df523b3ef9085905190815260200160405180910390a3506001929150505600a165627a7a723058206b401a1b67fecb79e074a7dece83e8660fb9d000fb1707018bda93742e3a56670029a165627a7a72305820d2791a9feb0d3bf88483f9c1f7e32e1231b56917fc20be1f579dd8baf0cc4bdb0029606060409081526003805460a060020a60ff02191690558051908101604052600f81527f52617465204461746520546f6b656e0000000000000000000000000000000000602082015260049080516200005d929160200190620003cc565b5060408051908101604052600381527f524454000000000000000000000000000000000000000000000000000000000060208201526005908051620000a7929160200190620003cc565b506006805460ff191660121790556a295be96e64066972000000600755635ad33ec0600855635abbd820600955635c787600600a55600b8054600160a060020a03191673627306090abab3a6e1400e9345bc60c78a8bef5717905534156200010e57600080fd5b60038054600160a060020a03191633600160a060020a0390811691909117909155600b546a06342fd08f00f637800000916a02116545850052128000009173f17f52151ebef6c7334fad080c5704d77216b732916a027b46536c66c8e30000009173c5fdf4076b8f3a5357c5e395ab970b5b54098fef91620001a0911686640100000000620001e281026200052c1704565b50620001bb83856401000000006200052c620001e282021704565b50620001d681836401000000006200052c620001e282021704565b50505050505062000471565b60035460009033600160a060020a039081169116146200020157600080fd5b60035474010000000000000000000000000000000000000000900460ff16156200022a57600080fd5b600954429010156200023b57600080fd5b6007546000546200025b908464010000000062000afb6200028882021704565b11156200026757600080fd5b62000281838364010000000062000b0a6200029882021704565b9392505050565b6000828201838110156200028157fe5b60035460009033600160a060020a03908116911614620002b757600080fd5b60035474010000000000000000000000000000000000000000900460ff1615620002e057600080fd5b600054620002fd908364010000000062000afb6200028882021704565b6000908155600160a060020a03841681526001602052604090205462000332908364010000000062000afb6200028882021704565b600160a060020a0384166000818152600160205260409081902092909255907f0f6798a560793a54c3bcfe86a93cde1e73087d944c0ea20544137d41213968859084905190815260200160405180910390a2600160a060020a03831660007fddf252ad1be2c89b69c2b068fc378daa952ba7f163c4a11628f55a4df523b3ef8460405190815260200160405180910390a350600192915050565b828054600181600116156101000203166002900490600052602060002090601f016020900481019282601f106200040f57805160ff19168380011785556200043f565b828001600101855582156200043f579182015b828111156200043f57825182559160200191906001019062000422565b506200044d92915062000451565b5090565b6200046e91905b808211156200044d576000815560010162000458565b90565b610d5080620004816000396000f3006060604052600436106100fb5763ffffffff7c010000000000000000000000000000000000000000000000000000000060003504166305d2035b811461010057806306fdde0314610127578063095ea7b3146101b157806318160ddd146101d357806323b872dd146101f8578063313ce56714610220578063355274ea1461024957806340c10f191461025c578063599270441461027e57806366188463146102ad57806370a08231146102cf5780637d64bcb4146102ee5780638da5cb5b1461030157806395d89b4114610314578063a9059cbb14610327578063d73dd62314610349578063dd62ed3e1461036b578063f2fde38b14610390575b600080fd5b341561010b57600080fd5b6101136103b1565b604051901515815260200160405180910390f35b341561013257600080fd5b61013a6103c1565b60405160208082528190810183818151815260200191508051906020019080838360005b8381101561017657808201518382015260200161015e565b50505050905090810190601f1680156101a35780820380516001836020036101000a031916815260200191505b509250505060405180910390f35b34156101bc57600080fd5b610113600160a060020a036004351660243561045f565b34156101de57600080fd5b6101e66104cb565b60405190815260200160405180910390f35b341561020357600080fd5b610113600160a060020a03600435811690602435166044356104d1565b341561022b57600080fd5b61023361051d565b60405160ff909116815260200160405180910390f35b341561025457600080fd5b6101e6610526565b341561026757600080fd5b610113600160a060020a036004351660243561052c565b341561028957600080fd5b6102916105a3565b604051600160a060020a03909116815260200160405180910390f35b34156102b857600080fd5b610113600160a060020a03600435166024356105b2565b34156102da57600080fd5b6101e6600160a060020a03600435166106ac565b34156102f957600080fd5b6101136106c7565b341561030c57600080fd5b610291610752565b341561031f57600080fd5b61013a610761565b341561033257600080fd5b610113600160a060020a03600435166024356107cc565b341561035457600080fd5b610113600160a060020a036004351660243561080f565b341561037657600080fd5b6101e6600160a060020a03600435811690602435166108b3565b341561039b57600080fd5b6103af600160a060020a03600435166108de565b005b60035460a060020a900460ff1681565b60048054600181600116156101000203166002900480601f0160208091040260200160405190810160405280929190818152602001828054600181600116156101000203166002900480156104575780601f1061042c57610100808354040283529160200191610457565b820191906000526020600020905b81548152906001019060200180831161043a57829003601f168201915b505050505081565b600160a060020a03338116600081815260026020908152604080832094871680845294909152808220859055909291907f8c5be1e5ebec7d5bd14f71427d1e84f3dd0314c0f7b2291e5b200ac8c7c3b9259085905190815260200160405180910390a350600192915050565b60005481565b600042600854111515156104e457600080fd5b600b5433600160a060020a039081169116141561050a57600a5442101561050a57600080fd5b610515848484610979565b949350505050565b60065460ff1681565b60075481565b60035460009033600160a060020a0390811691161461054a57600080fd5b60035460a060020a900460ff161561056157600080fd5b6009544290101561057157600080fd5b600754600054610587908463ffffffff610afb16565b111561059257600080fd5b61059c8383610b0a565b9392505050565b600b54600160a060020a031681565b600160a060020a0333811660009081526002602090815260408083209386168352929052908120548083111561060f57600160a060020a033381166000908152600260209081526040808320938816835292905290812055610646565b61061f818463ffffffff610c1716565b600160a060020a033381166000908152600260209081526040808320938916835292905220555b600160a060020a0333811660008181526002602090815260408083209489168084529490915290819020547f8c5be1e5ebec7d5bd14f71427d1e84f3dd0314c0f7b2291e5b200ac8c7c3b925915190815260200160405180910390a35060019392505050565b600160a060020a031660009081526001602052604090205490565b60035460009033600160a060020a039081169116146106e557600080fd5b60035460a060020a900460ff16156106fc57600080fd5b6003805474ff0000000000000000000000000000000000000000191660a060020a1790557fae5184fba832cb2b1f702aca6117b8d265eaf03ad33eb133f19dde0f5920fa0860405160405180910390a150600190565b600354600160a060020a031681565b60058054600181600116156101000203166002900480601f0160208091040260200160405190810160405280929190818152602001828054600181600116156101000203166002900480156104575780601f1061042c57610100808354040283529160200191610457565b600042600854111515156107df57600080fd5b600b5433600160a060020a039081169116141561080557600a5442101561080557600080fd5b61059c8383610c29565b600160a060020a033381166000908152600260209081526040808320938616835292905290812054610847908363ffffffff610afb16565b600160a060020a0333811660008181526002602090815260408083209489168084529490915290819020849055919290917f8c5be1e5ebec7d5bd14f71427d1e84f3dd0314c0f7b2291e5b200ac8c7c3b92591905190815260200160405180910390a350600192915050565b600160a060020a03918216600090815260026020908152604080832093909416825291909152205490565b60035433600160a060020a039081169116146108f957600080fd5b600160a060020a038116151561090e57600080fd5b600354600160a060020a0380831691167f8be0079c531659141344cd1fd0a4f28419497f9722a3daafe3b4186f6b6457e060405160405180910390a36003805473ffffffffffffffffffffffffffffffffffffffff1916600160a060020a0392909216919091179055565b6000600160a060020a038316151561099057600080fd5b600160a060020a0384166000908152600160205260409020548211156109b557600080fd5b600160a060020a03808516600090815260026020908152604080832033909416835292905220548211156109e857600080fd5b600160a060020a038416600090815260016020526040902054610a11908363ffffffff610c1716565b600160a060020a038086166000908152600160205260408082209390935590851681522054610a46908363ffffffff610afb16565b600160a060020a03808516600090815260016020908152604080832094909455878316825260028152838220339093168252919091522054610a8e908363ffffffff610c1716565b600160a060020a03808616600081815260026020908152604080832033861684529091529081902093909355908516917fddf252ad1be2c89b69c2b068fc378daa952ba7f163c4a11628f55a4df523b3ef9085905190815260200160405180910390a35060019392505050565b60008282018381101561059c57fe5b60035460009033600160a060020a03908116911614610b2857600080fd5b60035460a060020a900460ff1615610b3f57600080fd5b600054610b52908363ffffffff610afb16565b6000908155600160a060020a038416815260016020526040902054610b7d908363ffffffff610afb16565b600160a060020a0384166000818152600160205260409081902092909255907f0f6798a560793a54c3bcfe86a93cde1e73087d944c0ea20544137d41213968859084905190815260200160405180910390a2600160a060020a03831660007fddf252ad1be2c89b69c2b068fc378daa952ba7f163c4a11628f55a4df523b3ef8460405190815260200160405180910390a350600192915050565b600082821115610c2357fe5b50900390565b6000600160a060020a0383161515610c4057600080fd5b600160a060020a033316600090815260016020526040902054821115610c6557600080fd5b600160a060020a033316600090815260016020526040902054610c8e908363ffffffff610c1716565b600160a060020a033381166000908152600160205260408082209390935590851681522054610cc3908363ffffffff610afb16565b600160a060020a0380851660008181526001602052604090819020939093559133909116907fddf252ad1be2c89b69c2b068fc378daa952ba7f163c4a11628f55a4df523b3ef9085905190815260200160405180910390a3506001929150505600a165627a7a723058206b401a1b67fecb79e074a7dece83e8660fb9d000fb1707018bda93742e3a56670029",
  "source": "pragma solidity ^0.4.11;\n\nimport \"./RDT.sol\";\nimport \"zeppelin-solidity/contracts/crowdsale/CappedCrowdsale.sol\";\nimport \"zeppelin-solidity/contracts/ownership/Ownable.sol\";\n\ncontract PreSale is CappedCrowdsale, Ownable{\n  uint256 public minAmount = 1 ether/10;\n\n  function PreSale(uint256 _startTime, uint256 _endTime, uint256 _rate, uint256 _cap, address _wallet) public\n    CappedCrowdsale(_cap)\n    Crowdsale(_startTime, _endTime, _rate, _wallet)\n  {\n  }\n  function validPurchase() internal view returns (bool){\n    bool overMinAmount = msg.value >= minAmount;\n    return super.validPurchase() && overMinAmount;\n  }\n  function createTokenContract() internal returns (MintableToken) {\n    return new RDT();\n  }\n  function startICO(address contractICO) onlyOwner public returns(bool){\n    require(now > endTime);\n    token.transferOwnership(contractICO);\n    return true;\n  }\n}\n",
  "sourcePath": "/home/ch/projects/rd_smart_contract/contracts/PreSale.sol",
  "compiler": {
    "name": "solc",
    "version": "0.4.18+commit.9cf6e910.Emscripten.clang"
  },
  "schemaVersion": "1.0.1",
  "updatedAt": "2018-01-09T21:27:07.024Z"
}