{
  "contractName": "RDT",
  "abi": [
    {
      "constant": true,
      "inputs": [],
      "name": "mintingFinished",
      "outputs": [
        {
          "name": "",
          "type": "bool"
        }
      ],
      "payable": false,
      "stateMutability": "view",
      "type": "function"
    },
    {
      "constant": true,
      "inputs": [],
      "name": "name",
      "outputs": [
        {
          "name": "",
          "type": "string"
        }
      ],
      "payable": false,
      "stateMutability": "view",
      "type": "function"
    },
    {
      "constant": false,
      "inputs": [
        {
          "name": "_spender",
          "type": "address"
        },
        {
          "name": "_value",
          "type": "uint256"
        }
      ],
      "name": "approve",
      "outputs": [
        {
          "name": "",
          "type": "bool"
        }
      ],
      "payable": false,
      "stateMutability": "nonpayable",
      "type": "function"
    },
    {
      "constant": true,
      "inputs": [],
      "name": "totalSupply",
      "outputs": [
        {
          "name": "",
          "type": "uint256"
        }
      ],
      "payable": false,
      "stateMutability": "view",
      "type": "function"
    },
    {
      "constant": false,
      "inputs": [
        {
          "name": "_from",
          "type": "address"
        },
        {
          "name": "_to",
          "type": "address"
        },
        {
          "name": "_value",
          "type": "uint256"
        }
      ],
      "name": "transferFrom",
      "outputs": [
        {
          "name": "",
          "type": "bool"
        }
      ],
      "payable": false,
      "stateMutability": "nonpayable",
      "type": "function"
    },
    {
      "constant": true,
      "inputs": [],
      "name": "decimals",
      "outputs": [
        {
          "name": "",
          "type": "uint8"
        }
      ],
      "payable": false,
      "stateMutability": "view",
      "type": "function"
    },
    {
      "constant": true,
      "inputs": [],
      "name": "cap",
      "outputs": [
        {
          "name": "",
          "type": "uint256"
        }
      ],
      "payable": false,
      "stateMutability": "view",
      "type": "function"
    },
    {
      "constant": false,
      "inputs": [
        {
          "name": "_to",
          "type": "address"
        },
        {
          "name": "_amount",
          "type": "uint256"
        }
      ],
      "name": "mint",
      "outputs": [
        {
          "name": "",
          "type": "bool"
        }
      ],
      "payable": false,
      "stateMutability": "nonpayable",
      "type": "function"
    },
    {
      "constant": true,
      "inputs": [],
      "name": "teamWallet",
      "outputs": [
        {
          "name": "",
          "type": "address"
        }
      ],
      "payable": false,
      "stateMutability": "view",
      "type": "function"
    },
    {
      "constant": false,
      "inputs": [
        {
          "name": "_spender",
          "type": "address"
        },
        {
          "name": "_subtractedValue",
          "type": "uint256"
        }
      ],
      "name": "decreaseApproval",
      "outputs": [
        {
          "name": "",
          "type": "bool"
        }
      ],
      "payable": false,
      "stateMutability": "nonpayable",
      "type": "function"
    },
    {
      "constant": true,
      "inputs": [
        {
          "name": "_owner",
          "type": "address"
        }
      ],
      "name": "balanceOf",
      "outputs": [
        {
          "name": "balance",
          "type": "uint256"
        }
      ],
      "payable": false,
      "stateMutability": "view",
      "type": "function"
    },
    {
      "constant": false,
      "inputs": [],
      "name": "finishMinting",
      "outputs": [
        {
          "name": "",
          "type": "bool"
        }
      ],
      "payable": false,
      "stateMutability": "nonpayable",
      "type": "function"
    },
    {
      "constant": true,
      "inputs": [],
      "name": "owner",
      "outputs": [
        {
          "name": "",
          "type": "address"
        }
      ],
      "payable": false,
      "stateMutability": "view",
      "type": "function"
    },
    {
      "constant": true,
      "inputs": [],
      "name": "symbol",
      "outputs": [
        {
          "name": "",
          "type": "string"
        }
      ],
      "payable": false,
      "stateMutability": "view",
      "type": "function"
    },
    {
      "constant": false,
      "inputs": [
        {
          "name": "_to",
          "type": "address"
        },
        {
          "name": "_value",
          "type": "uint256"
        }
      ],
      "name": "transfer",
      "outputs": [
        {
          "name": "",
          "type": "bool"
        }
      ],
      "payable": false,
      "stateMutability": "nonpayable",
      "type": "function"
    },
    {
      "constant": false,
      "inputs": [
        {
          "name": "_spender",
          "type": "address"
        },
        {
          "name": "_addedValue",
          "type": "uint256"
        }
      ],
      "name": "increaseApproval",
      "outputs": [
        {
          "name": "",
          "type": "bool"
        }
      ],
      "payable": false,
      "stateMutability": "nonpayable",
      "type": "function"
    },
    {
      "constant": true,
      "inputs": [
        {
          "name": "_owner",
          "type": "address"
        },
        {
          "name": "_spender",
          "type": "address"
        }
      ],
      "name": "allowance",
      "outputs": [
        {
          "name": "",
          "type": "uint256"
        }
      ],
      "payable": false,
      "stateMutability": "view",
      "type": "function"
    },
    {
      "constant": false,
      "inputs": [
        {
          "name": "newOwner",
          "type": "address"
        }
      ],
      "name": "transferOwnership",
      "outputs": [],
      "payable": false,
      "stateMutability": "nonpayable",
      "type": "function"
    },
    {
      "inputs": [],
      "payable": false,
      "stateMutability": "nonpayable",
      "type": "constructor"
    },
    {
      "anonymous": false,
      "inputs": [
        {
          "indexed": true,
          "name": "to",
          "type": "address"
        },
        {
          "indexed": false,
          "name": "amount",
          "type": "uint256"
        }
      ],
      "name": "Mint",
      "type": "event"
    },
    {
      "anonymous": false,
      "inputs": [],
      "name": "MintFinished",
      "type": "event"
    },
    {
      "anonymous": false,
      "inputs": [
        {
          "indexed": true,
          "name": "previousOwner",
          "type": "address"
        },
        {
          "indexed": true,
          "name": "newOwner",
          "type": "address"
        }
      ],
      "name": "OwnershipTransferred",
      "type": "event"
    },
    {
      "anonymous": false,
      "inputs": [
        {
          "indexed": true,
          "name": "owner",
          "type": "address"
        },
        {
          "indexed": true,
          "name": "spender",
          "type": "address"
        },
        {
          "indexed": false,
          "name": "value",
          "type": "uint256"
        }
      ],
      "name": "Approval",
      "type": "event"
    },
    {
      "anonymous": false,
      "inputs": [
        {
          "indexed": true,
          "name": "from",
          "type": "address"
        },
        {
          "indexed": true,
          "name": "to",
          "type": "address"
        },
        {
          "indexed": false,
          "name": "value",
          "type": "uint256"
        }
      ],
      "name": "Transfer",
      "type": "event"
    }
  ],
  "bytecode": "0x606060409081526003805460a060020a60ff02191690558051908101604052600f81527f52617465204461746520546f6b656e0000000000000000000000000000000000602082015260049080516200005d929160200190620003cc565b5060408051908101604052600381527f524454000000000000000000000000000000000000000000000000000000000060208201526005908051620000a7929160200190620003cc565b506006805460ff191660121790556a295be96e64066972000000600755635ad33ec0600855635abbd820600955635c787600600a55600b8054600160a060020a03191673627306090abab3a6e1400e9345bc60c78a8bef5717905534156200010e57600080fd5b60038054600160a060020a03191633600160a060020a0390811691909117909155600b546a06342fd08f00f637800000916a02116545850052128000009173f17f52151ebef6c7334fad080c5704d77216b732916a027b46536c66c8e30000009173c5fdf4076b8f3a5357c5e395ab970b5b54098fef91620001a0911686640100000000620001e281026200052c1704565b50620001bb83856401000000006200052c620001e282021704565b50620001d681836401000000006200052c620001e282021704565b50505050505062000471565b60035460009033600160a060020a039081169116146200020157600080fd5b60035474010000000000000000000000000000000000000000900460ff16156200022a57600080fd5b600954429010156200023b57600080fd5b6007546000546200025b908464010000000062000afb6200028882021704565b11156200026757600080fd5b62000281838364010000000062000b0a6200029882021704565b9392505050565b6000828201838110156200028157fe5b60035460009033600160a060020a03908116911614620002b757600080fd5b60035474010000000000000000000000000000000000000000900460ff1615620002e057600080fd5b600054620002fd908364010000000062000afb6200028882021704565b6000908155600160a060020a03841681526001602052604090205462000332908364010000000062000afb6200028882021704565b600160a060020a0384166000818152600160205260409081902092909255907f0f6798a560793a54c3bcfe86a93cde1e73087d944c0ea20544137d41213968859084905190815260200160405180910390a2600160a060020a03831660007fddf252ad1be2c89b69c2b068fc378daa952ba7f163c4a11628f55a4df523b3ef8460405190815260200160405180910390a350600192915050565b828054600181600116156101000203166002900490600052602060002090601f016020900481019282601f106200040f57805160ff19168380011785556200043f565b828001600101855582156200043f579182015b828111156200043f57825182559160200191906001019062000422565b506200044d92915062000451565b5090565b6200046e91905b808211156200044d576000815560010162000458565b90565b610d5080620004816000396000f3006060604052600436106100fb5763ffffffff7c010000000000000000000000000000000000000000000000000000000060003504166305d2035b811461010057806306fdde0314610127578063095ea7b3146101b157806318160ddd146101d357806323b872dd146101f8578063313ce56714610220578063355274ea1461024957806340c10f191461025c578063599270441461027e57806366188463146102ad57806370a08231146102cf5780637d64bcb4146102ee5780638da5cb5b1461030157806395d89b4114610314578063a9059cbb14610327578063d73dd62314610349578063dd62ed3e1461036b578063f2fde38b14610390575b600080fd5b341561010b57600080fd5b6101136103b1565b604051901515815260200160405180910390f35b341561013257600080fd5b61013a6103c1565b60405160208082528190810183818151815260200191508051906020019080838360005b8381101561017657808201518382015260200161015e565b50505050905090810190601f1680156101a35780820380516001836020036101000a031916815260200191505b509250505060405180910390f35b34156101bc57600080fd5b610113600160a060020a036004351660243561045f565b34156101de57600080fd5b6101e66104cb565b60405190815260200160405180910390f35b341561020357600080fd5b610113600160a060020a03600435811690602435166044356104d1565b341561022b57600080fd5b61023361051d565b60405160ff909116815260200160405180910390f35b341561025457600080fd5b6101e6610526565b341561026757600080fd5b610113600160a060020a036004351660243561052c565b341561028957600080fd5b6102916105a3565b604051600160a060020a03909116815260200160405180910390f35b34156102b857600080fd5b610113600160a060020a03600435166024356105b2565b34156102da57600080fd5b6101e6600160a060020a03600435166106ac565b34156102f957600080fd5b6101136106c7565b341561030c57600080fd5b610291610752565b341561031f57600080fd5b61013a610761565b341561033257600080fd5b610113600160a060020a03600435166024356107cc565b341561035457600080fd5b610113600160a060020a036004351660243561080f565b341561037657600080fd5b6101e6600160a060020a03600435811690602435166108b3565b341561039b57600080fd5b6103af600160a060020a03600435166108de565b005b60035460a060020a900460ff1681565b60048054600181600116156101000203166002900480601f0160208091040260200160405190810160405280929190818152602001828054600181600116156101000203166002900480156104575780601f1061042c57610100808354040283529160200191610457565b820191906000526020600020905b81548152906001019060200180831161043a57829003601f168201915b505050505081565b600160a060020a03338116600081815260026020908152604080832094871680845294909152808220859055909291907f8c5be1e5ebec7d5bd14f71427d1e84f3dd0314c0f7b2291e5b200ac8c7c3b9259085905190815260200160405180910390a350600192915050565b60005481565b600042600854111515156104e457600080fd5b600b5433600160a060020a039081169116141561050a57600a5442101561050a57600080fd5b610515848484610979565b949350505050565b60065460ff1681565b60075481565b60035460009033600160a060020a0390811691161461054a57600080fd5b60035460a060020a900460ff161561056157600080fd5b6009544290101561057157600080fd5b600754600054610587908463ffffffff610afb16565b111561059257600080fd5b61059c8383610b0a565b9392505050565b600b54600160a060020a031681565b600160a060020a0333811660009081526002602090815260408083209386168352929052908120548083111561060f57600160a060020a033381166000908152600260209081526040808320938816835292905290812055610646565b61061f818463ffffffff610c1716565b600160a060020a033381166000908152600260209081526040808320938916835292905220555b600160a060020a0333811660008181526002602090815260408083209489168084529490915290819020547f8c5be1e5ebec7d5bd14f71427d1e84f3dd0314c0f7b2291e5b200ac8c7c3b925915190815260200160405180910390a35060019392505050565b600160a060020a031660009081526001602052604090205490565b60035460009033600160a060020a039081169116146106e557600080fd5b60035460a060020a900460ff16156106fc57600080fd5b6003805474ff0000000000000000000000000000000000000000191660a060020a1790557fae5184fba832cb2b1f702aca6117b8d265eaf03ad33eb133f19dde0f5920fa0860405160405180910390a150600190565b600354600160a060020a031681565b60058054600181600116156101000203166002900480601f0160208091040260200160405190810160405280929190818152602001828054600181600116156101000203166002900480156104575780601f1061042c57610100808354040283529160200191610457565b600042600854111515156107df57600080fd5b600b5433600160a060020a039081169116141561080557600a5442101561080557600080fd5b61059c8383610c29565b600160a060020a033381166000908152600260209081526040808320938616835292905290812054610847908363ffffffff610afb16565b600160a060020a0333811660008181526002602090815260408083209489168084529490915290819020849055919290917f8c5be1e5ebec7d5bd14f71427d1e84f3dd0314c0f7b2291e5b200ac8c7c3b92591905190815260200160405180910390a350600192915050565b600160a060020a03918216600090815260026020908152604080832093909416825291909152205490565b60035433600160a060020a039081169116146108f957600080fd5b600160a060020a038116151561090e57600080fd5b600354600160a060020a0380831691167f8be0079c531659141344cd1fd0a4f28419497f9722a3daafe3b4186f6b6457e060405160405180910390a36003805473ffffffffffffffffffffffffffffffffffffffff1916600160a060020a0392909216919091179055565b6000600160a060020a038316151561099057600080fd5b600160a060020a0384166000908152600160205260409020548211156109b557600080fd5b600160a060020a03808516600090815260026020908152604080832033909416835292905220548211156109e857600080fd5b600160a060020a038416600090815260016020526040902054610a11908363ffffffff610c1716565b600160a060020a038086166000908152600160205260408082209390935590851681522054610a46908363ffffffff610afb16565b600160a060020a03808516600090815260016020908152604080832094909455878316825260028152838220339093168252919091522054610a8e908363ffffffff610c1716565b600160a060020a03808616600081815260026020908152604080832033861684529091529081902093909355908516917fddf252ad1be2c89b69c2b068fc378daa952ba7f163c4a11628f55a4df523b3ef9085905190815260200160405180910390a35060019392505050565b60008282018381101561059c57fe5b60035460009033600160a060020a03908116911614610b2857600080fd5b60035460a060020a900460ff1615610b3f57600080fd5b600054610b52908363ffffffff610afb16565b6000908155600160a060020a038416815260016020526040902054610b7d908363ffffffff610afb16565b600160a060020a0384166000818152600160205260409081902092909255907f0f6798a560793a54c3bcfe86a93cde1e73087d944c0ea20544137d41213968859084905190815260200160405180910390a2600160a060020a03831660007fddf252ad1be2c89b69c2b068fc378daa952ba7f163c4a11628f55a4df523b3ef8460405190815260200160405180910390a350600192915050565b600082821115610c2357fe5b50900390565b6000600160a060020a0383161515610c4057600080fd5b600160a060020a033316600090815260016020526040902054821115610c6557600080fd5b600160a060020a033316600090815260016020526040902054610c8e908363ffffffff610c1716565b600160a060020a033381166000908152600160205260408082209390935590851681522054610cc3908363ffffffff610afb16565b600160a060020a0380851660008181526001602052604090819020939093559133909116907fddf252ad1be2c89b69c2b068fc378daa952ba7f163c4a11628f55a4df523b3ef9085905190815260200160405180910390a3506001929150505600a165627a7a723058206b401a1b67fecb79e074a7dece83e8660fb9d000fb1707018bda93742e3a56670029",
  "source": "pragma solidity ^0.4.11;\n\nimport \"zeppelin-solidity/contracts/token/MintableToken.sol\";\n\ncontract RDT is MintableToken {\n  string public name = \"Rate Date Token\";\n  string public symbol = \"RDT\";\n  uint8 public decimals = 18;\n  /* 50 000 000 cap for RDT tokens */\n  uint256 public cap = 50000000000000000000000000;\n  /* freeze transfer until 15 Apr 2018 */\n  uint256 transferFreezeUntil = 1523793600;\n  /* End mint 28 Mar 2018(ICO end date) */\n  uint256 endMint = 1522260000;\n  /* freeze team tokens until Mar 2019 */\n  uint256 teamFreeze = 1551398400;\n  address public teamWallet = 0x627306090abaB3A6e1400e9345bC60c78a8BEf57;\n\n\n  function RDT() public\n  {\n    uint256 teamTokens = 7500000000000000000000000;\n    uint256 bonusTokens = 2500000000000000000000000;\n    address bonusWallet = 0xf17f52151EbEF6C7334FAD080c5704D77216b732;\n    uint256 reserveTokens = 3000000000000000000000000;\n    address reserveWallet = 0xC5fdf4076b8F3A5357c5E395ab970B5B54098Fef;\n    mint(teamWallet,teamTokens);\n    mint(bonusWallet,bonusTokens);\n    mint(reserveWallet,reserveTokens);\n  }\n\n  function mint(address _to, uint256 _amount) onlyOwner canMint public returns (bool){\n    require(endMint >= now);\n    require(totalSupply.add(_amount) <= cap);\n    return super.mint(_to, _amount);\n  }\n\n  modifier notFrozen(){\n    require(transferFreezeUntil <= now);\n    if(msg.sender==teamWallet){\n      require(now >= teamFreeze);\n    }\n    _;\n  }\n\n  function transfer(address _to, uint256 _value) notFrozen public returns (bool) {\n    return super.transfer(_to, _value);\n  }\n\n  function transferFrom(address _from, address _to, uint256 _value) notFrozen public returns (bool){\n    return super.transferFrom(_from, _to, _value);\n  }\n}\n",
  "sourcePath": "/home/ch/projects/rd_smart_contract/contracts/RDT.sol",
  "compiler": {
    "name": "solc",
    "version": "0.4.18+commit.9cf6e910.Emscripten.clang"
  },
  "schemaVersion": "1.0.1",
  "updatedAt": "2018-01-09T21:15:52.258Z"
}