{
  "contractName": "RDTallocation",
  "abi": [
    {
      "constant": true,
      "inputs": [],
      "name": "ICO",
      "outputs": [
        {
          "name": "",
          "type": "address"
        }
      ],
      "payable": false,
      "stateMutability": "view",
      "type": "function"
    },
    {
      "constant": true,
      "inputs": [],
      "name": "owner",
      "outputs": [
        {
          "name": "",
          "type": "address"
        }
      ],
      "payable": false,
      "stateMutability": "view",
      "type": "function"
    },
    {
      "constant": false,
      "inputs": [],
      "name": "allocate",
      "outputs": [],
      "payable": false,
      "stateMutability": "nonpayable",
      "type": "function"
    },
    {
      "constant": false,
      "inputs": [
        {
          "name": "newOwner",
          "type": "address"
        }
      ],
      "name": "transferOwnership",
      "outputs": [],
      "payable": false,
      "stateMutability": "nonpayable",
      "type": "function"
    },
    {
      "constant": true,
      "inputs": [],
      "name": "token",
      "outputs": [
        {
          "name": "",
          "type": "address"
        }
      ],
      "payable": false,
      "stateMutability": "view",
      "type": "function"
    },
    {
      "inputs": [
        {
          "name": "_token",
          "type": "address"
        },
        {
          "name": "_ICO",
          "type": "address"
        }
      ],
      "payable": false,
      "stateMutability": "nonpayable",
      "type": "constructor"
    },
    {
      "anonymous": false,
      "inputs": [
        {
          "indexed": true,
          "name": "previousOwner",
          "type": "address"
        },
        {
          "indexed": true,
          "name": "newOwner",
          "type": "address"
        }
      ],
      "name": "OwnershipTransferred",
      "type": "event"
    }
  ],
  "bytecode": "0x6060604052341561000f57600080fd5b60405160408061046b833981016040528080519190602001805160008054600160a060020a03191633600160a060020a039081169190911790915590925083161515905061005c57600080fd5b600160a060020a038116151561007157600080fd5b60018054600160a060020a03938416600160a060020a031991821617909155600280549290931691161790556103bf806100ac6000396000f3006060604052600436106100535763ffffffff60e060020a600035041663273ba6bb81146100585780638da5cb5b14610087578063abaa99161461009a578063f2fde38b146100af578063fc0c546a146100ce575b600080fd5b341561006357600080fd5b61006b6100e1565b604051600160a060020a03909116815260200160405180910390f35b341561009257600080fd5b61006b6100f0565b34156100a557600080fd5b6100ad6100ff565b005b34156100ba57600080fd5b6100ad600160a060020a03600435166102e9565b34156100d957600080fd5b61006b610384565b600254600160a060020a031681565b600054600160a060020a031681565b6000805433600160a060020a0390811691161461011b57600080fd5b600154600254600160a060020a03918216916323b872dd9116736330a553fc93768f612722bb8c2ec78ac90b3bbc6969e10de76676d080000060006040516020015260405160e060020a63ffffffff8616028152600160a060020a0393841660048201529190921660248201526044810191909152606401602060405180830381600087803b15156101ac57600080fd5b6102c65a03f115156101bd57600080fd5b50505060405180515050600154600254600160a060020a03918216916370a08231911660006040516020015260405160e060020a63ffffffff8416028152600160a060020a039091166004820152602401602060405180830381600087803b151561022757600080fd5b6102c65a03f1151561023857600080fd5b5050506040518051600154600254919350600160a060020a0390811692506323b872dd91167310000000000000000000000000000000000000008460006040516020015260405160e060020a63ffffffff8616028152600160a060020a0393841660048201529190921660248201526044810191909152606401602060405180830381600087803b15156102cb57600080fd5b6102c65a03f115156102dc57600080fd5b5050506040518051505050565b60005433600160a060020a0390811691161461030457600080fd5b600160a060020a038116151561031957600080fd5b600054600160a060020a0380831691167f8be0079c531659141344cd1fd0a4f28419497f9722a3daafe3b4186f6b6457e060405160405180910390a36000805473ffffffffffffffffffffffffffffffffffffffff1916600160a060020a0392909216919091179055565b600154600160a060020a0316815600a165627a7a7230582074224e509666378b85d3aef206ff8f0332e63f0d344c3a91c513598953ff92680029",
  "source": "pragma solidity ^0.4.18;\n\nimport \"./RDT.sol\";\nimport \"zeppelin-solidity/contracts/ownership/Ownable.sol\";\n\ncontract RDTallocation is Ownable{\n  RDT public token;\n  address public ICO;\n\n  function RDTallocation(RDT _token, address _ICO) public{\n    require(_token!=address(0));\n    require(_ICO!=address(0));\n    token = _token;\n    ICO = _ICO;\n  }\n\n  function allocate() onlyOwner public{\n    token.transferFrom(ICO, 0x6330A553Fc93768F612722BB8c2eC78aC90B3bbc, 500000000000000000000000);\n    uint256 toBurnTokens = token.balanceOf(address(ICO));\n    token.transferFrom(ICO, 0x1000000000000000000000000000000000000000, toBurnTokens);\n  }\n}\n",
  "sourcePath": "/home/ch/projects/rd_smart_contract/contracts/RDTallocation.sol",
  "compiler": {
    "name": "solc",
    "version": "0.4.18+commit.9cf6e910.Emscripten.clang"
  },
  "schemaVersion": "1.0.1",
  "updatedAt": "2018-02-13T15:21:31.224Z"
}